:020000040000FA
:04000000CFEF3CF012
:10799E000001D2EF3CF0000E806E000E836E000EE2
:1079AE00956E000E936E000E946E928880A8E2EF94
:1079BE003CF0E4EF3CF0C2EF3DF003500410D8A4CD
:1079CE00EBEF3CF0EDEF3CF0C2EF3DF08180030EAB
:1079DE00026E8A0E016E560EE82EFED7012EFCD7D1
:1079EE00022EFAD781908182030E026E8A0E016EEC
:1079FE00560EE82EFED7012EFCD7022EFAD7819214
:107A0E008184030E026E8A0E016E560EE82EFED78C
:107A1E00012EFCD7022EFAD781948186030E026EB8
:107A2E008A0E016E560EE82EFED7012EFCD7022EC0
:107A3E00FAD781968188030E026E8A0E016E560E5B
:107A4E00E82EFED7012EFCD7022EFAD78198818A16
:107A5E00030E026E8A0E016E560EE82EFED7012E12
:107A6E00FCD7022EFAD7819A818C030E026E8A0EF3
:107A7E00016E560EE82EFED7012EFCD7022EFAD737
:107A8E00819C818E030E026E8A0E016E560EE82EBA
:107A9E00FED7012EFCD7022EFAD7818E030E026E70
:107AAE008A0E016E560EE82EFED7012EFCD7022E40
:107ABE00FAD7819E818C030E026E8A0E016E560ECF
:107ACE00E82EFED7012EFCD7022EFAD7819C818A92
:107ADE00030E026E8A0E016E560EE82EFED7012E92
:107AEE00FCD7022EFAD7819A8188030E026E8A0E77
:107AFE00016E560EE82EFED7012EFCD7022EFAD7B7
:107B0E0081988186030E026E8A0E016E560EE82E45
:107B1E00FED7012EFCD7022EFAD781968184030E52
:107B2E00026E8A0E016E560EE82EFED7012EFCD77F
:107B3E00022EFAD781948182030E026E8A0E016E96
:107B4E00560EE82EFED7012EFCD7022EFAD78192C2
:107B5E008180030E026E8A0E016E560EE82EFED73F
:107B6E00012EFCD7022EFAD78190000E046E010E64
:107B7E00036EC4EF3DF0000E816E80A8C9EF3DF09C
:107B8E00CBEF3DF09FEF3EF003040410D8A4D2EFEC
:107B9E003DF0D4EF3DF09FEF3EF083800B0E026E72
:107BAE00260E016E5E0EE82EFED7012EFCD7022E9B
:107BBE00FAD783820B0E026E260E016E5E0EE82E33
:107BCE00FED7012EFCD7022EFAD783840B0E026E3F
:107BDE00260E016E5E0EE82EFED7012EFCD7022E6B
:107BEE00FAD783860B0E026E260E016E5E0EE82EFF
:107BFE00FED7012EFCD7022EFAD783880B0E026E0B
:107C0E00260E016E5E0EE82EFED7012EFCD7022E3A
:107C1E00FAD7838A0B0E026E260E016E5E0EE82ECA
:107C2E00FED7012EFCD7022EFAD7838C0B0E026ED6
:107C3E00260E016E5E0EE82EFED7012EFCD7022E0A
:107C4E00FAD7838E0B0E026E260E016E5E0EE82E96
:107C5E00FED7012EFCD7022EFAD7839E0B0E026E94
:107C6E00260E016E5E0EE82EFED7012EFCD7022EDA
:107C7E00FAD7839C0B0E026E260E016E5E0EE82E58
:107C8E00FED7012EFCD7022EFAD7839C839A0B0EB9
:107C9E00026E260E016E5E0EE82EFED7012EFCD76A
:107CAE00022EFAD7839A83980B0E026E260E016E61
:107CBE005E0EE82EFED7012EFCD7022EFAD7839841
:107CCE0083960B0E026E260E016E5E0EE82EFED70A
:107CDE00012EFCD7022EFAD7839683940B0E026EDA
:107CEE00260E016E5E0EE82EFED7012EFCD7022E5A
:107CFE00FAD7839483920B0E026E260E016E5E0EE1
:107D0E00E82EFED7012EFCD7022EFAD7839283904F
:107D1E000B0E026E260E016E5E0EE82EFED7012EA3
:107D2E00FCD7022EFAD78390034A042AA1EF3EF025
:107D3E00000E836E80A8A6EF3EF0A8EF3EF0A6EFF1
:107D4E003FF0020E03180410D8A4B0EF3EF0B2EFCD
:107D5E003EF0A6EF3FF08290829282948298060EB9
:107D6E00026E130E016EAE0EE82EFED7012EFCD75C
:107D7E00022EFAD78280829282948298060E026E2A
:107D8E00130E016EAE0EE82EFED7012EFCD7022E7C
:107D9E00FAD78290828282948298060E026E130E19
:107DAE00016EAE0EE82EFED7012EFCD7022EFAD7AC
:107DBE008280828282948298060E026E130E016E6B
:107DCE00AE0EE82EFED7012EFCD7022EFAD78290E9
:107DDE00829282848298060E026E130E016EAE0E91
:107DEE00E82EFED7012EFCD7022EFAD78280829281
:107DFE0082848298060E026E130E016EAE0EE82E6F
:107E0E00FED7012EFCD7022EFAD782908282828470
:107E1E008298060E026E130E016EAE0EE82EFED77F
:107E2E00012EFCD7022EFAD782808282828482981B
:107E3E00060E026E130E016EAE0EE82EFED7012E4A
:107E4E00FCD7022EFAD78290829282948288060EF6
:107E5E00026E130E016EAE0EE82EFED7012EFCD76B
:107E6E00022EFAD78280829282948288060E026E49
:107E7E00130E016EAE0EE82EFED7012EFCD7022E8B
:107E8E00FAD78290828282948288060E026E130E38
:107E9E00016EAE0EE82EFED7012EFCD7022EFAD7BB
:107EAE008280828282948288060E026E130E016E8A
:107EBE00AE0EE82EFED7012EFCD7022EFAD78290F8
:107ECE00829282848288060E026E130E016EAE0EB0
:107EDE00E82EFED7012EFCD7022EFAD78280829290
:107EEE0082848288060E026E130E016EAE0EE82E8E
:107EFE00FED7012EFCD7022EFAD782908282828480
:107F0E008288060E026E130E016EAE0EE82EFED79E
:107F1E00012EFCD7022EFAD782808282828482883A
:107F2E00060E026E130E016EAE0EE82EFED7012E59
:107F3E00FCD7022EFAD7034A042A000E826E80A8BE
:107F4E00ABEF3FF0ADEF3FF0E6EF3FF0030E03185F
:107F5E000410D8A4B5EF3FF0B7EF3FF0E6EF3FF0D7
:107F6E00828E030E026E8A0E016E560EE82EFED71C
:107F7E00012EFCD7022EFAD7829E030E026E8A0EB7
:107F8E00016E560EE82EFED7012EFCD7022EFAD722
:107F9E0080A8D4EF3FF0D6EF3FF0B7EF3FF0034AA3
:107FAE00042A020E026E040E016EBA0EE82EFED7E1
:107FBE00012EFCD7022EFAD700D0E7EF3FF0829EBB
:107FCE0080A8ECEF3FF0EEEF3FF0FEEF3FF0040E37
:107FDE0003180410D8A4F6EF3FF0F8EF3FF0FEEFD1
:107FEE003FF0000E046E000E036EDDEF3CF000EF6E
:027FFE0000F091
:020000040020DA
:08000000FFFFFFFFFFFFFFFF00
:020000040030CA
:0E00000000051F1FFF8385FF0FC00FE00F409C
:00000001FF
