:020000040000FA
:0400000007EF00F016
:100008000782C8ED01F0F6EF01F005500610D8A4FC
:1000180010EF00F012EF00F018EF00F083908392D9
:1000280083948396A7EF00F005040610D8A41FEF69
:1000380000F021EF00F027EF00F083808392839493
:100048008396A7EF00F0020E05180610D8A42FEF2C
:1000580000F031EF00F037EF00F083908382839453
:100068008396A7EF00F0030E05180610D8A43FEFFB
:1000780000F041EF00F047EF00F083808382839423
:100088008396A7EF00F0040E05180610D8A44FEFCA
:1000980000F051EF00F057EF00F0839083928384D3
:1000A8008396A7EF00F0050E05180610D8A45FEF99
:1000B80000F061EF00F067EF00F0838083928384A3
:1000C8008396A7EF00F0060E05180610D8A46FEF68
:1000D80000F071EF00F077EF00F083908382838463
:1000E8008396A7EF00F0070E05180610D8A47FEF37
:1000F80000F081EF00F087EF00F083808382838433
:100108008396A7EF00F0080E05180610D8A48FEF05
:1001180000F091EF00F097EF00F0839083928394C2
:100128008386A7EF00F0090E05180610D8A49FEFE4
:1001380000F0A1EF00F0A7EF00F083808392839492
:100148008386A7EF00F0120005500610D8A4AFEF81
:1001580000F0B1EF00F0B7EF00F08398839A839C2A
:10016800839E46EF01F005040610D8A4BEEF00F008
:10017800C0EF00F0C6EF00F08388839A839C839ECB
:1001880046EF01F0020E05180610D8A4CEEF00F0D5
:10019800D0EF00F0D6EF00F08398838A839C839E8B
:1001A80046EF01F0030E05180610D8A4DEEF00F0A4
:1001B800E0EF00F0E6EF00F08388838A839C839E5B
:1001C80046EF01F0040E05180610D8A4EEEF00F073
:1001D800F0EF00F0F6EF00F08398839A838C839E0B
:1001E80046EF01F0050E05180610D8A4FEEF00F042
:1001F80000EF01F006EF01F08388839A838C839ED9
:1002080046EF01F0060E05180610D8A40EEF01F00F
:1002180010EF01F016EF01F08398838A838C839E98
:1002280046EF01F0070E05180610D8A41EEF01F0DE
:1002380020EF01F026EF01F08388838A838C839E68
:1002480046EF01F0080E05180610D8A42EEF01F0AD
:1002580030EF01F036EF01F08398839A839C838E08
:1002680046EF01F0090E05180610D8A43EEF01F07C
:1002780040EF01F046EF01F08388839A839C838ED8
:1002880046EF01F01200DCEC01F0FDEC01F0EBECC4
:1002980001F0000ED66ED6CF01F0026A02BE5EEF04
:1002A80001F0025009E11E0E015CD8A05EEF01F0DA
:1002B80060EF01F06DEF01F08182000E046E030E15
:1002C800036EE20E0124016EFF0E0220026EB8EFEB
:1002D80001F002BE79EF01F0025009E1140E015C51
:1002E800D8A079EF01F07BEF01F088EF01F081925F
:1002F800000E046E020E036EEC0E0124016EFF0E5A
:100308000220026EB8EF01F002BE94EF01F0025035
:1003180009E10A0E015CD8A094EF01F096EF01F014
:10032800A3EF01F08192000E046E010E036EF60E2B
:100338000124016EFF0E0220026EB8EF01F002BE2A
:10034800B1EF01F0025007E10A0E015CD8B0AFEF3F
:1003580001F0B1EF01F0B8EF01F08192000E046EE8
:10036800000E036EB8EF01F001C005F002C006F000
:1003780009EC00F003C005F004C006F0A8EC00F09A
:100388004FEF01F007EF00F00600F2A2CEEF01F008
:10039800D0EF01F0D2EF01F0D606F292F2A4D7EF37
:1003A80001F0D9EF01F0DAEF01F0F29407921100B1
:1003B8000F0EC16E100E926E000E806E010E936EBF
:1003C800000E816E000E956E000E836E1200F29E76
:1003D800D58AD598D586D58CD58EF294F28AF28EA8
:1003E800F28C1200046A036A07900792000147EF33
:0E03F80001F0F29EF288F18CF292F28E120069
:020000040020DA
:08000000FFFFFFFFFFFFFFFF00
:020000040030CA
:0E00000000051F1FFF8385FF0FC00FE00F409C
:00000001FF
