:020000040000FA
:0400000007EF00F016
:100008000382AEED00F0C8EF00F00A0E01180210EE
:10001800D8A411EF00F013EF00F019EF00F0000E74
:10002800026E000E016E51EF00F002BE25EF00F0E7
:10003800025009E1050E015CD8A025EF00F027EF7A
:1000480000F038EF00F002BE35EF00F0025007E193
:100058000A0E015CD8B033EF00F035EF00F038EF4E
:1000680000F0819051EF00F002BE44EF00F0025022
:1000780009E1050E015CD8A044EF00F046EF00F05E
:1000880050EF00F00A0E01180210D8A44EEF00F04D
:1000980050EF00F051EF00F08180120002BE5EEFD9
:1000A80000F0025009E1080E015CD8A05EEF00F0F4
:1000B80060EF00F071EF00F002BE6EEF00F002504A
:1000C80007E10A0E015CD8B06CEF00F06EEF00F0AB
:1000D80071EF00F081928AEF00F002BE7DEF00F030
:1000E800025009E1080E015CD8A07DEF00F07FEF17
:1000F80000F089EF00F00A0E01180210D8A487EF6B
:1001080000F089EF00F08AEF00F0818212000F0EF4
:10011800C16E040E936E000E816EBFEC00F0D80E17
:10012800D76EF00ED66E81A49CEF00F09EEF00F023
:10013800A4EF00F009EC00F052EC00F097EF00F0AB
:10014800000E816E000E026E000E016E97EF00F039
:1001580007EF00F00600F2A4B4EF00F0B6EF00F0ED
:10016800BDEF00F0014A022AD80ED76EF00ED66E07
:10017800F29403921100F29EF29C880ED56EF28AD8
:10018800F294F28EF28C1200026A016A03900392D2
:0601980000018BEF00F0F6
:020000040020DA
:08000000FFFFFFFFFFFFFFFF00
:020000040030CA
:0E00000000051F1FFF8385FF0FC00FE00F409C
:00000001FF
