:020000040000FA
:04000000F0EF00F02D
:06000800578234ED10F0F8
:100018005780D8CF60F0E8CF61F0E0CF62F0F0A26F
:1000280018EF00F01AEF00F02DEF00F01DEF00F0D0
:10003800838A81B622EF00F024EF00F01CEF00F075
:1000480081B629EF00F02BEF00F02DEF00F0F092D1
:10005800839AF2A032EF00F034EF00F0E8EF00F0FE
:100068000001B94BBA2B82B03CEF00F03EEF00F034
:1000780068EF00F081B843EF00F045EF00F049EF7A
:1000880000F0000EC66F010EC56F81BA4EEF00F08A
:1000980050EF00F054EF00F0000EC66F040EC56F6D
:1000A80081BC59EF00F05BEF00F05FEF00F0000E4D
:1000B800C66F070EC56F81BE64EF00F066EF00F0F3
:1000C80068EF00F02A0EC76F82B26DEF00F06FEF95
:1000D80000F09BEF00F081B874EF00F076EF00F0CD
:1000E8007AEF00F0000EC66F020EC56F81BA7FEF7F
:1000F80000F081EF00F085EF00F0000EC66F050EEE
:10010800C56F81BC8AEF00F08CEF00F090EF00F033
:10011800000EC66F080EC56F81BE95EF00F097EF11
:1001280000F09BEF00F0000EC66F000EC56F82B4A2
:10013800A0EF00F0A2EF00F0CBEF00F081B8A7EF3E
:1001480000F0A9EF00F0ADEF00F0000EC66F030E4F
:10015800C56F81BAB2EF00F0B4EF00F0B8EF00F06D
:10016800000EC66F060EC56F81BCBDEF00F0BFEF75
:1001780000F0C3EF00F0000EC66F090EC56F81BE18
:10018800C8EF00F0CAEF00F0CBEF00F0808A81A83A
:10019800D0EF00F0D2EF00F0CBEF00F081AAD7EF5C
:1001A80000F0D9EF00F0CBEF00F081ACDEEF00F00B
:1001B800E0EF00F0CBEF00F081AEE5EF00F0E7EF05
:1001C80000F0CBEF00F0F29062C0E0FF61C0E8FF02
:1001D80060C0D8FF57901000BEEF15F000016651BF
:1001E800800B6F6F66516625716F65AFFEEF00F08B
:1001F80000EF01F001EF01F071817151D8B407EF00
:1002080001F009EF01F01EEF01F07129D8A40FEFFA
:1002180001F011EF01F019EF01F0000E636F000E0D
:10022800646F000E656F000E666F658F000E666F57
:1002380026EF01F0000E636F000E646F000E656F0D
:10024800000E666F6A51800B706F6F517019D8B4C9
:1002580030EF01F032EF01F033EF01F06F8D6A51AA
:100268006A25706F69AF3BEF01F03DEF01F03EEF9B
:1002780001F070817051D8B444EF01F046EF01F0FD
:100288005BEF01F07029D8A44CEF01F04EEF01F0BC
:1002980056EF01F0000E676F000E686F000E696F71
:1002A800000E6A6F698F000E6A6F63EF01F0000E2F
:1002B800676F000E686F000E696F000E6A6F7151EC
:1002C800705DD8B06AEF01F06CEF01F093EF01F0C8
:1002D8006FAD71EF01F073EF01F075EF01F0800E73
:1002E8006F1B71C072F070C071F072C070F063C0A3
:1002F80072F067C063F072C067F064C072F068C0E3
:1003080064F072C068F065C072F069C065F072C0D0
:1003180069F066C072F06AC066F072C06AF0000EDA
:10032800726F715170C06BF06C6B6B5F000E6C5B21
:100338006CBFA8EF01F06C5109E11A0E6B5DD8A0F3
:10034800A8EF01F0AAEF01F0E1EF01F063516411A9
:1003580065116611D8A4B3EF01F0B6EF01F0010EF4
:10036800B7EF01F0000E726F000E636F000E646F3E
:10037800000E656F000E666F70C071F0EAEF01F055
:1003880072A1C9EF01F0CBEF01F0D1EF01F0D890E5
:1003980072310109726FD3EF01F0D890723363A103
:1003A800D8EF01F0DAEF01F0DBEF01F0728F66357C
:1003B8006633653364336333712B7051715DD8A034
:1003C800E8EF01F0EAEF01F0C4EF01F06FBDEFEFE5
:1003D80001F0F1EF01F031EF02F07151D8A4F7EF1D
:1003E80001F0F9EF01F003EF02F0000E636F000E69
:1003F800646F000E656F000E666F52EF03F0675171
:10040800632768516423695165236A51662366A18D
:1004180010EF02F012EF02F0BEEF02F072A117EF38
:1004280002F019EF02F01FEF02F0D89072310109C3
:10043800726F21EF02F0D890723363A126EF02F0B9
:1004480028EF02F029EF02F0728F663566336533C4
:1004580064336333712BBEEF02F06751635D6851FB
:100468006459695165596651800A6B6F6A51800AEF
:100478006B59D8B042EF02F044EF02F06FEF02F090
:100488006351675D6B6F645168596C6F6551695949
:100498006D6F66516A596E6FFF0E6B25636FFF0EA5
:1004A8006C21646FFF0E6D21656FFF0E6E21666F04
:1004B800800E6F1B726D7251D8A465EF02F067EF62
:1004C80002F077EF02F0010E6327000E6423652324
:1004D800662377EF02F06751635F6851645B695187
:1004E800655B6A51665B6351641165116611D8A436
:1004F80080EF02F082EF02F0B7EF02F07251D8A459
:1005080088EF02F08AEF02F0B7EF02F0000E636F97
:10051800000E646F000E656F000E666F52EF03F0F9
:10052800D890633764376537663772AF9EEF02F04D
:10053800A0EF02F0A1EF02F0638172A1A6EF02F032
:10054800A8EF02F0ACEF02F0D8807237AEEF02F0FD
:10055800D89072377151D8B4B4EF02F0B6EF02F008
:10056800B7EF02F0710765AFBCEF02F0BEEF02F023
:1005780094EF02F0000E706F72AFC5EF02F0C7EF94
:1005880002F0DFEF02F072C06BF07F0E6B17D8B489
:10059800D0EF02F0D2EF02F0D6EF02F0010E706F4A
:1005A800DFEF02F063A1DBEF02F0DDEF02F0DFEF37
:1005B80002F0D2EF02F07051D8B4E5EF02F0E7EFA5
:1005C80002F012EF03F0010E6327000E6423652387
:1005D800662366A1F2EF02F0F4EF02F012EF03F0E7
:1005E80063C06BF064C06CF065C06DF066C06EF0FF
:1005F8006E356E336D336C336B336BC063F06CC028
:1006080064F06DC065F06EC066F07129D8B40FEF64
:1006180003F011EF03F012EF03F0712B7129D8B436
:1006280018EF03F01AEF03F022EF03F07151D8A48A
:1006380020EF03F022EF03F034EF03F0000E636FB6
:10064800000E646F000E656F000E666F7151D8A4BE
:1006580030EF03F032EF03F034EF03F0000E6F6F6A
:1006680071A139EF03F03BEF03F03EEF03F0658F24
:100678003FEF03F0659FD8907131666F6FAF47EF1A
:1006880003F049EF03F04AEF03F0668F63C063F0AD
:1006980064C064F065C065F066C066F0120004507E
:1006A800800B0D6E045004240F6E03AE5EEF03F052
:1006B80060EF03F061EF03F00F800F50D8B467EFDD
:1006C80003F069EF03F07EEF03F00F28D8A46FEF73
:1006D80003F071EF03F079EF03F0000E016E000EE6
:1006E800026E000E036E000E046E038E000E046E82
:1006F80086EF03F0000E016E000E026E000E036E10
:10070800000E046E0850800B0E6E0D500E18D8B4F3
:1007180090EF03F092EF03F093EF03F00D8C085085
:1007280008240E6E07AE9BEF03F09DEF03F09EEFDB
:1007380003F00E800E50D8B4A4EF03F0A6EF03F038
:10074800BBEF03F00E28D8A4ACEF03F0AEEF03F034
:10075800B6EF03F0000E056E000E066E000E076E73
:10076800000E086E078E000E086EC3EF03F0000E31
:10077800056E000E066E000E076E000E086E0F5016
:100788000E5CD8B0CAEF03F0CCEF03F0F3EF03F040
:100798000DACD1EF03F0D3EF03F0D5EF03F0800EEB
:1007A8000D1A0FC010F00EC00FF010C00EF001C0EF
:1007B80010F005C001F010C005F002C010F006C02E
:1007C80002F010C006F003C010F007C003F010C01C
:1007D80007F004C010F008C004F010C008F0000EC4
:1007E800106E0F500EC009F00A6A095E000E0A5A10
:1007F8000ABE08EF04F00A5009E11A0E095CD8A0F5
:1008080008EF04F00AEF04F041EF04F00150021081
:1008180003100410D8A413EF04F016EF04F0010E2F
:1008280017EF04F0000E106E000E016E000E026E3F
:10083800000E036E000E046E0EC00FF04AEF04F0B7
:1008480010A029EF04F02BEF04F031EF04F0D8905A
:1008580010300109106E33EF04F0D890103201A067
:1008680038EF04F03AEF04F03BEF04F0108E043454
:1008780004320332023201320F2A0E500F5CD8A024
:1008880048EF04F04AEF04F024EF04F00DBC4FEFFA
:1008980004F051EF04F091EF04F00F50D8A457EF93
:1008A80004F059EF04F063EF04F0000E016E000E3F
:1008B800026E000E036E000E046EB2EF05F00550D6
:1008C800012606500222075003220850042204A0E1
:1008D80070EF04F072EF04F01EEF05F010A077EF50
:1008E80004F079EF04F07FEF04F0D890103001099C
:1008F800106E81EF04F0D890103201A086EF04F05A
:1009080088EF04F089EF04F0108E043404320332C7
:10091800023201320F2A1EEF05F00550015C065025
:100928000258075003580450800A096E0850800A7C
:100938000958D8B0A2EF04F0A4EF04F0CFEF04F008
:100948000150055C096E025006580A6E035007589C
:100958000B6E045008580C6EFF0E0924016EFF0E32
:100968000A20026EFF0E0B20036EFF0E0C20046E91
:10097800800E0D1A106C1050D8A4C5EF04F0C7EF04
:1009880004F0D7EF04F0010E0126000E0222032224
:100998000422D7EF04F00550015E0650025A0750B2
:1009A800035A0850045A0150021003100410D8A426
:1009B800E0EF04F0E2EF04F017EF05F01050D8A4D0
:1009C800E8EF04F0EAEF04F017EF05F0000E016E0F
:1009D800000E026E000E036E000E046EB2EF05F0FC
:1009E800D890013602360336043610AEFEEF04F016
:1009F80000EF05F001EF05F0018010A006EF05F00B
:100A080008EF05F00CEF05F0D88010360EEF05F072
:100A1800D89010360F50D8B414EF05F016EF05F043
:100A280017EF05F00F0603AE1CEF05F01EEF05F0FB
:100A3800F4EF04F0000E0E6E10AE25EF05F027EF70
:100A480005F03FEF05F010C009F07F0E0916D8B485
:100A580030EF05F032EF05F036EF05F0010E0E6EBF
:100A68003FEF05F001A03BEF05F03DEF05F03FEF4C
:100A780005F032EF05F00E50D8B445EF05F047EF1A
:100A880005F072EF05F0010E0126000E0222032286
:100A9800042204A052EF05F054EF05F072EF05F0C0
:100AA80001C009F002C00AF003C00BF004C00CF04A
:100AB8000C340C320B320A32093209C001F00AC078
:100AC80002F00BC003F00CC004F00F28D8B46FEF8D
:100AD80005F071EF05F072EF05F00F2A0F28D8B472
:100AE80078EF05F07AEF05F082EF05F00F50D8A403
:100AF80080EF05F082EF05F094EF05F0000E016E2F
:100B0800000E026E000E036E000E046E0F50D8A485
:100B180090EF05F092EF05F094EF05F0000E0D6EE2
:100B28000FA099EF05F09BEF05F09EEF05F0038EFF
:100B38009FEF05F0039ED8900F30046E0DAEA7EF1F
:100B480005F0A9EF05F0AAEF05F0048E01C001F049
:100B580002C002F003C003F004C004F01200000158
:100B68007651800B7F6F76517625856F75AFBFEF15
:100B780005F0C1EF05F0C2EF05F085818551D8B4C5
:100B8800C8EF05F0CAEF05F0DDEF05F08529D8A418
:100B9800D0EF05F0D2EF05F0DAEF05F0000E736F35
:100BA800000E746F000E756F000E766F758FE5EF8F
:100BB80005F0000E736F000E746F000E756F000E57
:100BC800766F7A51800B7F1B7A517A25846F79AFC3
:100BD800F0EF05F0F2EF05F0F3EF05F084818451B2
:100BE800D8B4F9EF05F0FBEF05F00EEF06F0842915
:100BF800D8A401EF06F003EF06F00BEF06F0000EA5
:100C0800776F000E786F000E796F000E7A6F798F0C
:100C180016EF06F0000E776F000E786F000E796FF2
:100C2800000E7A6F8451D8B41CEF06F01EEF06F060
:100C380026EF06F08551D8A424EF06F026EF06F03B
:100C480030EF06F0000E736F000E746F000E756FB4
:100C5800000E766FC8EF07F079517303F3CF8AF06F
:100C6800F4CF8BF08A51806F816B826B836B8B51D1
:100C7800866F876B886B896B78517403F3CF8AF022
:100C8800F4CF8BF08A518027000E8123822383239F
:100C98008B518627000E8723882389237751750374
:100CA800F3CF8AF0F4CF8BF08A518027000E81238E
:100CB800822383238B518627000E87238823892349
:100CC80082C083F081C082F080C081F0806B775150
:100CD8007403F3CF8AF0F4CF8BF08A5180278B51BD
:100CE8008123000E8223000E832378517303F3CFF0
:100CF8008AF0F4CF8BF08A5180278B518123000E24
:100D08008223000E832382C083F081C082F080C0DA
:100D180081F0806B77517303F3CF8AF0F4CF8BF0B7
:100D28008A5180278B518123000E8223000E832352
:100D380079517403F3CF8AF0F4CF8BF08A51862768
:100D48008B518723000E8823000E89237851750361
:100D5800F3CF8AF0F4CF8BF08A5186278B51872303
:100D6800000E8823000E892379517503F3CF8AF08A
:100D7800F4CF8BF08A517B6F8B517C6F7D6B7E6BD0
:100D88007DC07EF07CC07DF07BC07CF07B6B7B51AE
:100D980086277C5187237D5188237E51892380C0F3
:100DA8007BF081C07CF082C07DF083C07EF0190E9C
:100DB800E3EF06F0D8907E337D337C337B33E82E27
:100DC800DEEF06F07B5186277C5187237D518823EF
:100DD8007E51892382C083F081C082F080C081F077
:100DE800806B845185C07BF07C6B7B27000E7C2355
:100DF800820E7B258A6FFF0E7C218B6F19EF07F01F
:100E0800D890863787378837893783AF0EEF07F052
:100E180010EF07F011EF07F08681D89080378137FF
:100E2800823783378A07D8A08B0788AF1EEF07F071
:100E380020EF07F004EF07F0000E846F83AF27EF71
:100E480007F029EF07F04DEF07F0FF0E80157B6FD5
:100E5800FF0E81157C6FFF0E82157D6F7F0E831547
:100E68007E6F7B517C117D117E11D8B43EEF07F067
:100E780040EF07F044EF07F0010E846F4DEF07F0E5
:100E880086A149EF07F04BEF07F04DEF07F040EF71
:100E980007F08451D8B453EF07F055EF07F079EF16
:100EA80007F0010E8627000E87238823892389A14E
:100EB80060EF07F062EF07F079EF07F086C07BF08C
:100EC80087C07CF088C07DF089C07EF07E357E3397
:100ED8007D337C337B337BC086F07CC087F07DC05C
:100EE80088F07EC089F08A4B8B2B8BBF84EF07F08C
:100EF8008B5108E18A29D8A084EF07F086EF07F024
:100F080090EF07F0000E866F000E876F800E886FD7
:100F18007F0E896FBEEF07F08BBF9DEF07F08B51F7
:100F280006E18A05D8B09BEF07F09DEF07F0A9EF1F
:100F380007F0000E866F000E876F000E886F000E98
:100F4800896F000E7F6FBEEF07F08AC085F0FF0E35
:100F58008617FF0E87177F0E8817000E891785A141
:100F6800B8EF07F0BAEF07F0BBEF07F0888FD8901B
:100F78008531896F7F51891386C073F087C074F0FB
:100F880088C075F089C076F012001450800B1D6E71
:100F980014501424236E13AED4EF07F0D6EF07F0E5
:100FA800D7EF07F023802350D8B4DDEF07F0DFEF49
:100FB80007F0F2EF07F02328D8A4E5EF07F0E7EFF2
:100FC80007F0EFEF07F0000E116E000E126E000E24
:100FD800136E000E146E138EFAEF07F0000E116EEA
:100FE800000E126E000E136E000E146E1850800B59
:100FF8001D1A18501824226E17AE05EF08F007EFD7
:1010080008F008EF08F022802250D8B40EEF08F05C
:1010180010EF08F023EF08F02228D8A416EF08F004
:1010280018EF08F020EF08F0000E156E000E166E8F
:10103800000E176E000E186E178E2BEF08F0000EBC
:10104800156E000E166E000E176E000E186E2250EA
:10105800D8B431EF08F033EF08F03BEF08F0235035
:10106800D8A439EF08F03BEF08F045EF08F0000E80
:10107800116E000E126E000E136E000E146EDDEF70
:1010880009F017501102F3CF28F0F4CF29F02850B7
:101098001E6E1F6A206A216A2950246E256A266AF4
:1010A800276A16501202F3CF28F0F4CF29F02850FF
:1010B8001E26000E1F222022212229502426000E3F
:1010C80025222622272215501302F3CF28F0F4CF29
:1010D80029F028501E26000E1F22202221222950E6
:1010E8002426000E25222622272220C021F01FC0F8
:1010F80020F01EC01FF01E6A15501202F3CF28F010
:10110800F4CF29F028501E2629501F22000E202235
:10111800000E212216501102F3CF28F0F4CF29F047
:1011280028501E2629501F22000E2022000E2122A0
:1011380020C021F01FC020F01EC01FF01E6A1550ED
:101148001102F3CF28F0F4CF29F028501E26295099
:101158001F22000E2022000E212217501202F3CF68
:1011680028F0F4CF29F02850242629502522000EF3
:101178002622000E272216501302F3CF28F0F4CFB0
:1011880029F02850242629502522000E2622000E58
:10119800272217501302F3CF28F0F4CF29F0285054
:1011A800196E29501A6E1B6A1C6A1BC01CF01AC0E3
:1011B8001BF019C01AF0196A195024261A50252252
:1011C8001B5026221C5027221EC019F01FC01AF0DF
:1011D80020C01BF021C01CF0190EF8EF08F0D890C1
:1011E8001C321B321A321932E82EF3EF08F019506C
:1011F80024261A5025221B5026221C50272220C0A4
:1012080021F01FC020F01EC01FF01E6A225023C00C
:1012180019F01A6A1926000E1A22820E1924286E4D
:10122800FF0E1A20296E2EEF09F0D89024362536A5
:101238002636273621AE23EF09F025EF09F026EFF1
:1012480009F02480D8901E361F362036213628060D
:10125800D8A0290626AE33EF09F035EF09F019EFCB
:1012680009F0000E226E21AE3CEF09F03EEF09F0C6
:1012780062EF09F0FF0E1E14196EFF0E1F141A6E8E
:10128800FF0E20141B6E7F0E21141C6E19501A10AD
:101298001B101C10D8B453EF09F055EF09F059EFA3
:1012A80009F0010E226E62EF09F024A05EEF09F04A
:1012B80060EF09F062EF09F055EF09F02250D8B459
:1012C80068EF09F06AEF09F08EEF09F0010E2426A5
:1012D800000E25222622272227A075EF09F077EF96
:1012E80009F08EEF09F024C019F025C01AF026C0C5
:1012F8001BF027C01CF01C341C321B321A32193266
:1013080019C024F01AC025F01BC026F01CC027F015
:10131800284A292A29BE99EF09F0295008E12828E6
:10132800D8A099EF09F09BEF09F0A5EF09F0000E9E
:10133800246E000E256E800E266E7F0E276ED3EF6C
:1013480009F029BEB2EF09F0295006E12804D8B007
:10135800B0EF09F0B2EF09F0BEEF09F0000E246E0D
:10136800000E256E000E266E000E276E000E1D6EF6
:10137800D3EF09F028C023F0FF0E2416FF0E251620
:101388007F0E2616000E271623A0CDEF09F0CFEF0B
:1013980009F0D0EF09F0268ED8902330276E1D5023
:1013A800271224C011F025C012F026C013F027C060
:1013B80014F0120000018F51800B9C6F8F518F2504
:1013C800A36F8EAFEAEF09F0ECEF09F0EDEF09F04B
:1013D800A381A351D8B4F3EF09F0F5EF09F00AEFB0
:1013E8000AF0A329D8A4FBEF09F0FDEF09F005EFF7
:1013F8000AF0000E8C6F000E8D6F000E8E6F000EBF
:101408008F6F8E8F000E8F6F12EF0AF0000E8C6FA9
:10141800000E8D6F000E8E6F000E8F6F9351800B34
:101428009C1B93519325A46F92AF1DEF0AF01FEFF9
:101438000AF020EF0AF0A481A451D8B426EF0AF0EC
:1014480028EF0AF03DEF0AF0A429D8A42EEF0AF0FD
:1014580030EF0AF038EF0AF0000E906F000E916F2F
:10146800000E926F000E936F928F000E936F45EFF0
:101478000AF0000E906F000E916F000E926F000E32
:10148800936F9051911192119311D8A44EEF0AF0D5
:1014980050EF0AF068EF0AF0000E8C6F000E8D6FA7
:1014A800000E8E6F000E8F6F800E8E137F0E8F13BF
:1014B8009C518F138CC08CF08DC08DF08EC08EF037
:1014C8008FC08FF0ABEF0BF0A351D8A46EEF0AF0EA
:1014D80070EF0AF07AEF0AF0000E8C6F000E8D6F35
:1014E800000E8E6F000E8F6FABEF0BF0A451A3C0F0
:1014F80094F0956B945F000E955B7F0E94259D6F1D
:10150800000E95219E6F8CC098F08DC099F08EC00A
:101518009AF08FC09BF0000E8C6F000E8D6F000E3E
:101528008E6F000E8F6F000E9F6F000EA06F000E63
:10153800A16F000EA26F000EA46FDBEF0AF0A4519A
:10154800D8B4A9EF0AF0ABEF0AF0C2EF0AF0D890CE
:10155800983799379A379B37D8908C378D378E378D
:101568008F37A2AFBAEF0AF0BCEF0AF0BDEF0AF06E
:101578008C81D8909F37A037A137A2379051985DBA
:101588009151995992519A5993519B59D8A0CFEF9B
:101598000AF0D1EF0AF0DAEF0AF0A28D9051985FC5
:1015A8009151995B92519A5B93519B5BA42B190EB5
:1015B800A465E1EF0AF0E3EF0AF0A3EF0AF098510F
:1015C80099119A119B11D8B4ECEF0AF0EEEF0AF0DA
:1015D80006EF0BF09F8106EF0BF0D8908C378D3714
:1015E8008E378F37A2AFFBEF0AF0FDEF0AF0FEEF60
:1015F8000AF08C81D8909F37A037A137A2379D0772
:10160800D8A09E078EAF0BEF0BF00DEF0BF0F1EFAC
:101618000AF0000EA46FA2AF14EF0BF016EF0BF058
:101628003AEF0BF0FF0E9F15946FFF0EA015956F04
:10163800FF0EA115966F7F0EA215976F9451951105
:1016480096119711D8B42BEF0BF02DEF0BF031EF6B
:101658000BF0010EA46F3AEF0BF08CA136EF0BF0F4
:1016680038EF0BF03AEF0BF02DEF0BF0A451D8B494
:1016780040EF0BF042EF0BF066EF0BF0010E8C27FA
:10168800000E8D238E238F238FA14DEF0BF04FEF8C
:101698000BF066EF0BF08CC094F08DC095F08EC007
:1016A80096F08FC097F097359733963395339433E8
:1016B80094C08CF095C08DF096C08EF097C08FF0D6
:1016C8009D4B9E2B9EBF71EF0BF09E5108E19D290B
:1016D800D8A071EF0BF073EF0BF07EEF0BF0000E5C
:1016E8009E6F9D69000E8C6F000E8D6F000E8E6FC1
:1016F800000E8F6F9EBF8BEF0BF09E5106E19D058C
:10170800D8B089EF0BF08BEF0BF099EF0BF0000ED0
:101718009E6F000E9D6F000E8C6F000E8D6F000E79
:101728008E6F000E8F6F000E9C6F9DC0A3F0A3A15B
:10173800A0EF0BF0A2EF0BF0A5EF0BF08E8FA6EF4A
:101748000BF08E9FD890A3318F6F5CEF0AF01200D8
:101758002D50800B3A6E2D502D24416E2CAEB7EFD4
:101768000BF0B9EF0BF0BAEF0BF041804150D8B451
:10177800C0EF0BF0C2EF0BF0D7EF0BF04128D8A465
:10178800C8EF0BF0CAEF0BF0D2EF0BF0000E2A6E89
:10179800000E2B6E000E2C6E000E2D6E2C8E000E81
:1017A8002D6EDFEF0BF0000E2A6E000E2B6E000E72
:1017B8002C6E000E2D6E3150800B3A1A31503124A8
:1017C800426E30AEEAEF0BF0ECEF0BF0EDEF0BF002
:1017D80042804250D8B4F3EF0BF0F5EF0BF00AEF6C
:1017E8000CF04228D8A4FBEF0BF0FDEF0BF005EF4F
:1017F8000CF0000E2E6E000E2F6E000E306E000ED6
:10180800316E308E000E316E12EF0CF0000E2E6E1F
:10181800000E2F6E000E306E000E316E2E502F10FF
:1018280030103110D8A41BEF0CF01DEF0CF035EF81
:101838000CF0000E2A6E000E2B6E000E2C6E000EA1
:101848002D6E800E2C127F0E2D123A502D122AC0AA
:101858002AF02BC02BF02CC02CF02DC02DF078EFE7
:101868000DF04150D8A43BEF0CF03DEF0CF047EFE2
:101878000CF0000E2A6E000E2B6E000E2C6E000E61
:101888002D6E78EF0DF0425041C032F0336A325E6F
:10189800000E335A7F0E32243B6E000E33203C6E0E
:1018A8002AC036F02BC037F02CC038F02DC039F0E4
:1018B800000E2A6E000E2B6E000E2C6E000E2D6E82
:1018C800000E3D6E000E3E6E000E3F6E000E406E26
:1018D800000E426EA8EF0CF04250D8B476EF0CF030
:1018E80078EF0CF08FEF0CF0D89036363736383664
:1018F8003936D8902A362B362C362D3640AE87EF1F
:101908000CF089EF0CF08AEF0CF02A80D8903D3665
:101918003E363F3640362E50365C2F5037583050C2
:10192800385831503958D8A09CEF0CF09EEF0CF085
:10193800A7EF0CF0408C2E50365E2F50375A30509F
:10194800385A3150395A422A190E4264AEEF0CF017
:10195800B0EF0CF070EF0CF036503710381039102B
:10196800D8B4B9EF0CF0BBEF0CF0D3EF0CF03D801E
:10197800D3EF0CF0D8902A362B362C362D3640AEC5
:10198800C8EF0CF0CAEF0CF0CBEF0CF02A80D8901F
:101998003D363E363F3640363B06D8A03C062CAE98
:1019A800D8EF0CF0DAEF0CF0BEEF0CF0000E426E40
:1019B80040AEE1EF0CF0E3EF0CF007EF0DF0FF0E97
:1019C8003D14326EFF0E3E14336EFF0E3F14346E1C
:1019D8007F0E4014356E3250331034103510D8B4A1
:1019E800F8EF0CF0FAEF0CF0FEEF0CF0010E426E7F
:1019F80007EF0DF02AA003EF0DF005EF0DF007EF4C
:101A08000DF0FAEF0CF04250D8B40DEF0DF00FEFD7
:101A18000DF033EF0DF0010E2A26000E2B222C229A
:101A28002D222DA01AEF0DF01CEF0DF033EF0DF065
:101A38002AC032F02BC033F02CC034F02DC035F062
:101A48003534353234323332323232C02AF033C090
:101A58002BF034C02CF035C02DF03B4A3C2A3CBE5C
:101A68003EEF0DF03C5008E13B28D8A03EEF0DF0CA
:101A780040EF0DF04BEF0DF0000E3C6E3B68000E92
:101A88002A6E000E2B6E000E2C6E000E2D6E3CBEC4
:101A980058EF0DF03C5006E13B04D8B056EF0DF07E
:101AA80058EF0DF066EF0DF0000E3C6E000E3B6E29
:101AB800000E2A6E000E2B6E000E2C6E000E2D6E80
:101AC800000E3A6E3BC041F041A06DEF0DF06FEF94
:101AD8000DF072EF0DF02C8E73EF0DF02C9ED89058
:101AE80041302D6E29EF0CF01200090E926E9368AA
:101AF800000E946E000E956E080E966E000E806EA7
:101B0800000E816E000E826E000E836E000E846ED3
:101B1800A4EC15F0060E826E050E826E030E826E20
:101B28007CEC13F068EF0EF0839A838CC3C0B3F09B
:101B3800C4C0B4F0B4BFA5EF0DF0A3EF0DF0A7EF4C
:101B48000DF00EEF0EF0B3C063F0B4C064F09EEC7D
:101B580011F00001BB51BC11D8A4B5EF0DF0B7EFDF
:101B68000DF0E3EF0DF0C1C0B5F0C2C0B6F0B6BFDE
:101B7800C2EF0DF0C0EF0DF0C4EF0DF0DDEF0DF08A
:101B8800B5C063F0B6C064F0FEEC10F0060E0001BC
:101B9800B26F130EB16FAD0EE82EFED7B12FFCD782
:101BA800B22FFAD700D00001B507D8A0B607BBEF0F
:101BB8000DF0000EBC6F010EBB6F09EF0EF0000EAA
:101BC800B86F090EB76FB7C063F0B8C064F0FEEC29
:101BD80010F0B7C0C1F0B8C0C2F0060E0001B26F75
:101BE800130EB16FAD0EE82EFED7B12FFCD7B22F72
:101BF800FAD700D00001B707D8A0B807B8BF09EFD7
:101C08000EF007EF0EF0E7EF0DF0B307D8A0B4071A
:101C18009EEF0DF0000EBC6F000EBB6F000EC46F80
:101C2800000EC36F000EC26F000EC16F000EC66FAC
:101C3800000EC56F000EBA6F000EB96F839C300E90
:101C4800C76F8EEF0DF0B905BA11D8A42EEF0EF0BC
:101C580030EF0EF047EF0EF0C5C0BFF0C6C0C0F0C1
:101C6800BFC0C1F0C0C0C2F0C1C063F0C2C064F060
:101C7800FEEC10F0C1C0BDF0C2C0BEF00001B94B0F
:101C8800BA2B8EEF0DF0B9A14CEF0EF04EEF0EF01F
:101C98007AEF0EF0BDC0C3F0BEC0C4F0C3C063F09D
:101CA800C4C064F09EEC11F0C5C0BFF0C6C0C0F05F
:101CB800C5C0C1F0C6C0C2F0C1C063F0C2C064F004
:101CC800FEEC10F03EEF0EF00001C751B16FB26BA1
:101CD800B251000AD8B473EF0EF027EF0EF0B151ED
:101CE8002A0AD8B498EF0DF027EF0EF08EEF0DF01A
:101CF800F0EF00F000016B6F00016B51D8B487EF73
:101D08000EF089EF0EF0ABEF0EF066BF90EF0EF01D
:101D18008EEF0EF0ABEF0EF063C067F064C068F0B2
:101D280065C069F066C06AF0671F681F691F6A1F8F
:101D3800672B000E682369236A2367C06DF068C0AB
:101D48006EF069C06FF06AC070F0B3EF0EF063C058
:101D58006DF064C06EF065C06FF066C070F06351DE
:101D6800641165116611D8A4BCEF0EF0BEEF0EF039
:101D7800C8EF0EF0000E636F000E646F000E656F03
:101D8800000E666F59EF0FF0960E6C6FD2EF0EF0E3
:101D98006C2BD89070336F336E336D33000E6D1526
:101DA800676F000E6E15686F000E6F15696FFE0E77
:101DB80070156A6F6751681169116A11D8A4E7EF45
:101DC8000EF0E9EF0EF0CCEF0EF0F7EF0EF06C2B03
:101DD800010E6D27000E6E236F237023D890703389
:101DE8006F336E336D33000E6D15676F000E6E1511
:101DF800686F000E6F15696FFF0E70156A6F675177
:101E0800681169116A11D8A40CEF0FF00EEF0FF0EA
:101E1800EBEF0EF016EF0FF06C07D8906D376E37BA
:101E28006F3770376FBF1BEF0FF01DEF0FF025EF07
:101E38000FF0020E6C6123EF0FF025EF0FF010EF9B
:101E48000FF06CB12AEF0FF02CEF0FF02DEF0FF021
:101E58006F9FD8906C336CC067F0686B696B6A6B66
:101E680067C06AF0696B686B676B67516D1368517F
:101E78006E1369516F136A5170136B51D8B447EFE1
:101E88000FF049EF0FF051EF0FF066BF50EF0FF072
:101E98004EEF0FF051EF0FF0708F6DC063F06EC012
:101EA80064F06FC065F070C066F01200096E0950EA
:101EB800D8B461EF0FF063EF0FF085EF0FF004BEB9
:101EC8006AEF0FF068EF0FF085EF0FF001C005F033
:101ED80002C006F003C007F004C008F0051E061E85
:101EE800071E081E052A000E06220722082205C022
:101EF8000BF006C00CF007C00DF008C00EF08DEF17
:101F08000FF001C00BF002C00CF003C00DF004C0CC
:101F18000EF00150021003100410D8A496EF0FF031
:101F280098EF0FF0A2EF0FF0000E016E000E026E98
:101F3800000E036E000E046E33EF10F0960E0A6E5C
:101F4800ACEF0FF00A2AD8900E320D320C320B3259
:101F5800000E0B14056E000E0C14066E000E0D1408
:101F6800076EFE0E0E14086E0550061007100810B6
:101F7800D8A4C1EF0FF0C3EF0FF0A6EF0FF0D1EF29
:101F88000FF00A2A010E0B26000E0C220D220E223B
:101F9800D8900E320D320C320B32000E0B14056E37
:101FA800000E0C14066E000E0D14076EFF0E0E14B4
:101FB800086E0550061007100810D8A4E6EF0FF0B9
:101FC800E8EF0FF0C5EF0FF0F0EF0FF00A06D8902A
:101FD8000B360C360D360E360DBEF5EF0FF0F7EF5B
:101FE8000FF0FFEF0FF0020E0A60FDEF0FF0FFEFAA
:101FF8000FF0EAEF0FF00AB004EF10F006EF10F060
:1020080007EF10F00D9ED8900A320AC005F0066A54
:10201800076A086A05C008F0076A066A056A055073
:102028000B1206500C1207500D1208500E120950D0
:10203800D8B421EF10F023EF10F02BEF10F004BE0E
:102048002AEF10F028EF10F02BEF10F00E8E0BC0D7
:1020580001F00CC002F00DC003F00EC004F0120035
:102068000600F3CF51F0F4CF52F0F2A23EEF10F099
:1020780040EF10F0DAEF10F0F292000E566E000EFC
:10208800556E55C001F056C002F03EEC12F055C036
:1020980001F056C002F0DDEC12F0030E506E8A0E0D
:1020A8004F6E560EE82EFED74F2EFCD7502EFAD77D
:1020B800554A562A56BE6AEF10F0565009E10A0EE4
:1020C800555CD8A06AEF10F06CEF10F045EF10F0F7
:1020D800000E026E000E016E3EEC12F0000E026E53
:1020E800000E016EDDEC12F0000E546E000E536E01
:1020F800838A020E506E860E4F6E990EE82EFED71A
:102108004F2EFCD7502EFAD700F0839A020E506E4D
:10211800860E4F6E990EE82EFED74F2EFCD7502E06
:10212800FAD700F0838C020E506E860E4F6E990E11
:10213800E82EFED74F2EFCD7502EFAD700F0839CFE
:10214800020E506E860E4F6E990EE82EFED74F2E59
:10215800FCD7502EFAD700F0838E020E506E860EF2
:102168004F6E990EE82EFED74F2EFCD7502EFAD779
:1021780000F0839E020E506E860E4F6E990EE82E6A
:10218800FED74F2EFCD7502EFAD700F0534A542AC8
:1021980054BED8EF10F0545009E1030E535CD8A098
:1021A800D8EF10F0DAEF10F07CEF10F0F0A0DFEFCE
:1021B80010F0E1EF10F0F8EF10F0E5EF10F010EC90
:1021C80014F083B8EAEF10F0ECEF10F0E3EF10F042
:1021D80081B4F1EF10F0F3EF10F0F7EF10F0839EF9
:1021E800F090F8EF10F0838E52C0F4FF51C0F3FF67
:1021F80057921100000163516411D8A406EF11F041
:1022080008EF11F00EEF11F0839083928394839678
:102218009DEF11F063056411D8A415EF11F017EFC5
:1022280011F01DEF11F083808392839483969DEFC4
:1022380011F0020E63196411D8A425EF11F027EFED
:1022480011F02DEF11F083908382839483969DEF94
:1022580011F0030E63196411D8A435EF11F037EFAC
:1022680011F03DEF11F083808382839483969DEF74
:1022780011F0040E63196411D8A445EF11F047EF6B
:1022880011F04DEF11F083908392838483969DEF34
:1022980011F0050E63196411D8A455EF11F057EF2A
:1022A80011F05DEF11F083808392838483969DEF14
:1022B80011F0060E63196411D8A465EF11F067EFE9
:1022C80011F06DEF11F083908382838483969DEFE4
:1022D80011F0070E63196411D8A475EF11F077EFA8
:1022E80011F07DEF11F083808382838483969DEFC4
:1022F80011F0080E63196411D8A485EF11F087EF67
:1023080011F08DEF11F083908392839483869DEF73
:1023180011F0090E63196411D8A495EF11F097EF25
:1023280011F09DEF11F083808392839483869DEF53
:1023380011F01200000163516411D8A4A6EF11F046
:10234800A8EF11F0AEEF11F08098809A84908492F3
:102358003DEF12F063056411D8A4B5EF11F0B7EFA3
:1023680011F0BDEF11F08088809A849084923DEF3F
:1023780012F0020E63196411D8A4C5EF11F0C7EF6B
:1023880011F0CDEF11F08098808A849084923DEF0F
:1023980012F0030E63196411D8A4D5EF11F0D7EF2A
:1023A80011F0DDEF11F08088808A849084923DEFEF
:1023B80012F0040E63196411D8A4E5EF11F0E7EFE9
:1023C80011F0EDEF11F08098809A848084923DEFAF
:1023D80012F0050E63196411D8A4F5EF11F0F7EFA8
:1023E80011F0FDEF11F08088809A848084923DEF8F
:1023F80012F0060E63196411D8A405EF12F007EF66
:1024080012F00DEF12F08098808A848084923DEF5C
:1024180012F0070E63196411D8A415EF12F017EF24
:1024280012F01DEF12F08088808A848084923DEF3C
:1024380012F0080E63196411D8A425EF12F027EFE3
:1024480012F02DEF12F08098809A849084823DEFEC
:1024580012F0090E63196411D8A435EF12F037EFA2
:1024680012F03DEF12F08088809A849084823DEFCC
:1024780012F0120001500210D8A445EF12F047EFF5
:1024880012F04DEF12F08390839283948396DCEFE1
:1024980012F001040210D8A454EF12F056EF12F013
:1024A8005CEF12F08380839283948396DCEF12F0C2
:1024B800020E01180210D8A464EF12F066EF12F0B1
:1024C8006CEF12F08390838283948396DCEF12F092
:1024D800030E01180210D8A474EF12F076EF12F070
:1024E8007CEF12F08380838283948396DCEF12F072
:1024F800040E01180210D8A484EF12F086EF12F02F
:102508008CEF12F08390839283848396DCEF12F031
:10251800050E01180210D8A494EF12F096EF12F0ED
:102528009CEF12F08380839283848396DCEF12F011
:10253800060E01180210D8A4A4EF12F0A6EF12F0AC
:10254800ACEF12F08390838283848396DCEF12F0E1
:10255800070E01180210D8A4B4EF12F0B6EF12F06B
:10256800BCEF12F08380838283848396DCEF12F0C1
:10257800080E01180210D8A4C4EF12F0C6EF12F02A
:10258800CCEF12F08390839283948386DCEF12F071
:10259800090E01180210D8A4D4EF12F0D6EF12F0E9
:1025A800DCEF12F08380839283948386DCEF12F051
:1025B800120001500210D8A4E4EF12F0E6EF12F076
:1025C800ECEF12F08098809A849084927BEF13F05D
:1025D80001040210D8A4F3EF12F0F5EF12F0FBEFAC
:1025E80012F08088809A849084927BEF13F0020E18
:1025F80001180210D8A403EF13F005EF13F00BEF46
:1026080013F08098808A849084927BEF13F0030EF5
:1026180001180210D8A413EF13F015EF13F01BEFF5
:1026280013F08088808A849084927BEF13F0040EE4
:1026380001180210D8A423EF13F025EF13F02BEFA5
:1026480013F08098809A848084927BEF13F0050EB3
:1026580001180210D8A433EF13F035EF13F03BEF55
:1026680013F08088809A848084927BEF13F0060EA2
:1026780001180210D8A443EF13F045EF13F04BEF05
:1026880013F08098808A848084927BEF13F0070E81
:1026980001180210D8A453EF13F055EF13F05BEFB5
:1026A80013F08088808A848084927BEF13F0080E70
:1026B80001180210D8A463EF13F065EF13F06BEF65
:1026C80013F08098809A849084827BEF13F0090E2F
:1026D80001180210D8A473EF13F075EF13F07BEF15
:1026E80013F08088809A849084827BEF13F0120024
:1026F800C280C28208EF14F0000E0001AD6F000E18
:10270800AE6F000EAF6F000EB06FC450A66FA56B12
:10271800C350A76FA86BA551A727A651A823A7C088
:1027280063F0A8C064F0000E64BFFF0E656F666FAB
:10273800010E7EEC0EF063C0A9F064C0AAF065C07B
:10274800ABF066C0ACF0000E0001776F000E786F3A
:10275800160E796F430E7A6F000E676F000E686F62
:10276800800E696F3F0E6A6FA9C063F0AAC064F05B
:10277800ABC065F0ACC066F0F2EC00F063C073F07B
:1027880064C074F065C075F066C076F0B3EC05F00F
:1027980073C08CF074C08DF075C08EF076C08FF069
:1027A800000E0001906F000E916F800E926F440E24
:1027B800936FDEEC09F08CC0ADF08DC0AEF08EC02A
:1027C800AFF08FC0B0F0000E0001636F000E646FB1
:1027D800700E656F420E666FADC067F0AEC068F0F0
:1027E800AFC069F0B0C06AF09FEC14F00001D8B037
:1027F80000EF14F002EF14F006EF14F08388838ED4
:1028080008EF14F08398839EC2B20DEF14F00FEF17
:1028180014F080EF13F01200C280C28297EF14F018
:10282800000E4B6E000E4C6E000E4D6E000E4E6E7E
:10283800C450446E436AC350456E466A43504526A9
:102848004450462245C001F046C002F0000E02BEC8
:10285800FF0E036E046E010E5AEC0FF001C047F034
:1028680002C048F003C049F004C04AF0000E156EDB
:10287800000E166E160E176E430E186E000E056EBD
:10288800000E066E800E076E3F0E086E47C001F000
:1028980048C002F049C003F04AC004F053EC03F00A
:1028A80001C011F002C012F003C013F004C014F00C
:1028B800C9EC07F011C02AF012C02BF013C02CF09D
:1028C80014C02DF0000E2E6E000E2F6E800E306E8E
:1028D800440E316EACEC0BF02AC04BF02BC04CF020
:1028E8002CC04DF02DC04EF0000E016E000E026E91
:1028F800700E036E420E046E4BC005F04CC006F01D
:102908004DC007F04EC008F022EC15F0D8B08FEF9C
:1029180014F091EF14F095EF14F08388838E97EFFD
:1029280014F08398839EC2B29CEF14F09EEF14F0CB
:1029380014EF14F01200000E000163156B6F000E07
:1029480064156C6F800E65156D6F7F0E66156E6F62
:102958006B516C116D116E11D8A4B5EF14F0B7EF6F
:1029680014F0BFEF14F0000E636F000E646F000EDA
:10297800656F000E666F000E67156B6F000E6815A9
:102988006C6F800E69156D6F7F0E6A156E6F6B51D7
:102998006C116D116E11D8A4D4EF14F0D6EF14F0A9
:1029A800DEEF14F0000E676F000E686F000E696F9F
:1029B800000E6A6F66AFE3EF14F0E5EF14F0EEEF88
:1029C80014F0636D641FD8B0642B651FD8B0652BF5
:1029D800800E66576AAFF3EF14F0F5EF14F0FEEFD0
:1029E80014F0676D681FD8B0682B691FD8B0692BC1
:1029F800800E6A57000E631B000E641B000E651BD9
:102A0800800E661B000E671B000E681B000E691BFC
:102A1800800E6A1B6751635D685164596951655935
:102A28006A516659D8B01BEF15F01DEF15F020EF6D
:102A380015F0D89021EF15F0D8801200000E01147F
:102A4800096E000E02140A6E800E03140B6E7F0EC0
:102A580004140C6E09500A100B100C10D8A437EF90
:102A680015F039EF15F041EF15F0000E016E000E6C
:102A7800026E000E036E000E046E000E0514096E41
:102A8800000E06140A6E800E07140B6E7F0E0814D3
:102A98000C6E09500A100B100C10D8A456EF15F044
:102AA80058EF15F060EF15F0000E056E000E066E7B
:102AB800000E076E000E086E04AE65EF15F067EFA6
:102AC80015F070EF15F0016C021ED8B0022A031E33
:102AD800D8B0032A800E045608AE75EF15F077EFCC
:102AE80015F080EF15F0056C061ED8B0062A071EF3
:102AF800D8B0072A800E0856000E011A000E021AD6
:102B0800000E031A800E041A000E051A000E061A8B
:102B1800000E071A800E081A0550015C065002586C
:102B28000750035808500458D8B09DEF15F09FEF90
:102B380015F0A2EF15F0D890A3EF15F0D880120089
:102B4800000EC26E1B0EC16E940EC06EF29EF2880D
:102B5800F086F088F286F18CF18AF188D08EF28EB8
:102B6800F28CF08CF09EF190F19EF292F090F0923F
:102B7800F2901200A80EF66E2B0EF76E000EF86E8D
:102B88000900F5CFC7F000EEB9F00E0EEE6AE806C0
:102B9800FDE157905792000EF86E000179EF0DF0A5
:012BA80041EB
:020000040020DA
:08000000FFFFFFFFFFFFFFFF00
:020000040030CA
:0E00000000001F1FFF8385FF0FC00FE00F40A1
:00000001FF
