:020000040000FA
:04000000F0EF34F0F9
:1069E000000104EF3AF0000E0114096E000E0214CB
:1069F0000A6E800E03140B6E7F0E04140C6E095089
:106A00000A100B100C10D8A408EF35F00AEF35F07F
:106A100012EF35F0000E016E000E026E000E036ED6
:106A2000000E046E000E0514096E000E06140A6EA8
:106A3000800E07140B6E7F0E08140C6E09500A109E
:106A40000B100C10D8A427EF35F029EF35F031EFFB
:106A500035F0000E056E000E066E000E076E000E7D
:106A6000086E055001180FE1065002180CE107509E
:106A7000031809E108500418D8B441EF35F043EF8A
:106A800035F046EF35F0D89047EF35F0D88012005A
:106A9000096E0950D8B44FEF35F051EF35F073EF70
:106AA00035F004BE58EF35F056EF35F073EF35F0A2
:106AB00001C005F002C006F003C007F004C008F0F2
:106AC000051E061E071E081E052A000E06220722A6
:106AD000082205C00BF006C00CF007C00DF008C07E
:106AE0000EF07BEF35F001C00BF002C00CF003C0DC
:106AF0000DF004C00EF00150021003100410D8A4D1
:106B000084EF35F086EF35F090EF35F0000E016E32
:106B1000000E026E000E036E000E046E21EF36F0C2
:106B2000960E0A6E9AEF35F00A2AD8900E320D3280
:106B30000C320B32000E0B14056E000E0C14066E98
:106B4000000E0D14076EFE0E0E14086E0550061092
:106B500007100810D8A4AFEF35F0B1EF35F094EF7F
:106B600035F0BFEF35F00A2A010E0B26000E0C227D
:106B70000D220E22D8900E320D320C320B32000E46
:106B80000B14056E000E0C14066E000E0D14076E2D
:106B9000FF0E0E14086E0550061007100810D8A43A
:106BA000D4EF35F0D6EF35F0B3EF35F0DEEF35F05A
:106BB0000A06D8900B360C360D360E360DBEE3EFB6
:106BC00035F0E5EF35F0EDEF35F0020E0A60EBEF52
:106BD00035F0EDEF35F0D8EF35F00AB0F2EF35F0E3
:106BE000F4EF35F0F5EF35F00D9ED8900A320AC07B
:106BF00005F0066A076A086A05C008F0076A066AAF
:106C0000056A05500B1206500C1207500D12085061
:106C10000E120950D8B40FEF36F011EF36F019EF1D
:106C200036F004BE18EF36F016EF36F019EF36F0F6
:106C30000E8E0BC001F00CC002F00DC003F00EC0B0
:106C400004F012002B50800B386E2B502B243F6E1B
:106C50002AAE2DEF36F02FEF36F030EF36F03F80D2
:106C60003F50D8B436EF36F038EF36F04DEF36F00F
:106C70003F28D8A43EEF36F040EF36F048EF36F02C
:106C8000000E286E000E296E000E2A6E000E2B6E6E
:106C90002A8E000E2B6E55EF36F0000E286E000E79
:106CA000296E000E2A6E000E2B6E2F50800B381AA4
:106CB0002F502F24406E2EAE60EF36F062EF36F08C
:106CC00063EF36F040804050D8B469EF36F06BEF98
:106CD00036F080EF36F04028D8A471EF36F073EF2D
:106CE00036F07BEF36F0000E2C6E000E2D6E000E8F
:106CF0002E6E000E2F6E2E8E000E2F6E88EF36F049
:106D0000000E2C6E000E2D6E000E2E6E000E2F6EDD
:106D10002C502D102E102F10D8A491EF36F093EF99
:106D200036F0ABEF36F0000E286E000E296E000E26
:106D30002A6E000E2B6E800E2A127F0E2B123850F8
:106D40002B1228C028F029C029F02AC02AF02BC015
:106D50002BF0EEEF37F03F50D8A4B1EF36F0B3EFA1
:106D600036F0BDEF36F0000E286E000E296E000ED4
:106D70002A6E000E2B6EEEEF37F040503FC030F021
:106D8000316A305E000E315A7F0E3024396E000EAB
:106D900031203A6E28C034F029C035F02AC036F0D0
:106DA0002BC037F0000E286E000E296E000E2A6EE2
:106DB000000E2B6E000E3B6E000E3C6E000E3D6E04
:106DC000000E3E6E000E406E1EEF37F04050D8B4FD
:106DD000ECEF36F0EEEF36F005EF37F0D8903436C2
:106DE000353636363736D890283629362A362B3679
:106DF0003EAEFDEF36F0FFEF36F000EF37F02880C3
:106E0000D8903B363C363D363E362C50345C2D50C7
:106E100035582E5036582F503758D8A012EF37F02B
:106E200014EF37F01DEF37F03E8C2C50345E2D50B0
:106E3000355A2E50365A2F50375A402A190E406470
:106E400024EF37F026EF37F0E6EF36F03450351008
:106E500036103710D8B42FEF37F031EF37F049EF55
:106E600037F03B8049EF37F0D890283629362A365C
:106E70002B363EAE3EEF37F040EF37F041EF37F0C4
:106E80002880D8903B363C363D363E363906D8A071
:106E90003A062AAE4EEF37F050EF37F034EF37F0C6
:106EA000000E406E3EAE57EF37F059EF37F07DEFF2
:106EB00037F0FF0E3B14306EFF0E3C14316EFF0EA8
:106EC0003D14326E7F0E3E14336E3050311032104E
:106ED0003310D8B46EEF37F070EF37F074EF37F04F
:106EE000010E406E7DEF37F028A079EF37F07BEF91
:106EF00037F07DEF37F070EF37F04050D8B483EFC4
:106F000037F085EF37F0A9EF37F0010E2826000E95
:106F100029222A222B222BA090EF37F092EF37F074
:106F2000A9EF37F028C030F029C031F02AC032F084
:106F30002BC033F03334333232323132303230C05E
:106F400028F031C029F032C02AF033C02BF0394A82
:106F50003A2A3ABEB4EF37F03A5008E13928D8A0BF
:106F6000B4EF37F0B6EF37F0C1EF37F0000E3A6EFE
:106F70003968000E286E000E296E000E2A6E000E73
:106F80002B6E3ABECEEF37F03A5006E13904D8B056
:106F9000CCEF37F0CEEF37F0DCEF37F0000E3A6E83
:106FA000000E396E000E286E000E296E000E2A6E3D
:106FB000000E2B6E000E386E39C03FF03FA0E3EF9D
:106FC00037F0E5EF37F0E8EF37F02A8EE9EF37F0EA
:106FD0002A9ED8903F302B6E9FEF36F01200125051
:106FE000800B1B6E12501224216E11AEFAEF37F097
:106FF000FCEF37F0FDEF37F021802150D8B403EFDC
:1070000038F005EF38F018EF38F02128D8A40BEF4E
:1070100038F00DEF38F015EF38F0000E0F6E000E5F
:10702000106E000E116E000E126E118E20EF38F0F1
:10703000000E0F6E000E106E000E116E000E126E1E
:107040001650800B1B1A16501624206E15AE2BEF0F
:1070500038F02DEF38F02EEF38F020802050D8B4E3
:1070600034EF38F036EF38F049EF38F02028D8A464
:107070003CEF38F03EEF38F046EF38F0000E136E7C
:10708000000E146E000E156E000E166E158E51EF6A
:1070900038F0000E136E000E146E000E156E000E0A
:1070A000166E2050D8B457EF38F059EF38F061EF32
:1070B00038F02150D8A45FEF38F061EF38F06BEF73
:1070C00038F0000E0F6E000E106E000E116E000EE6
:1070D000126E03EF3AF015500F02F3CF26F0F4CF03
:1070E00027F026501C6E1D6A1E6A1F6A2750226EEA
:1070F000236A246A256A14501002F3CF26F0F4CFD5
:1071000027F026501C26000E1D221E221F2227506B
:107110002226000E23222422252213501102F3CF0F
:1071200026F0F4CF27F026501C26000E1D221E222A
:107130001F2227502226000E2322242225221EC091
:107140001FF01DC01EF01CC01DF01C6A1350100261
:10715000F3CF26F0F4CF27F026501C2627501D220F
:10716000000E1E22000E1F2214500F02F3CF26F035
:10717000F4CF27F026501C2627501D22000E1E2279
:10718000000E1F221EC01FF01DC01EF01CC01DF0EF
:107190001C6A13500F02F3CF26F0F4CF27F02650CD
:1071A0001C2627501D22000E1E22000E1F221550E5
:1071B0001002F3CF26F0F4CF27F0265022262750D6
:1071C0002322000E2422000E252214501102F3CF98
:1071D00026F0F4CF27F02650222627502322000E37
:1071E0002422000E252215501102F3CF26F0F4CFF1
:1071F00027F02650176E2750186E196A1A6A19C0A0
:107200001AF018C019F017C018F0176A1750222684
:1072100018502322195024221A5025221CC017F07E
:107220001DC018F01EC019F01FC01AF0190E1EEF75
:1072300039F0D8901A32193218321732E82E19EF75
:1072400039F01750222618502322195024221A50A0
:1072500025221EC01FF01DC01EF01CC01DF01C6AA0
:10726000205021C017F0186A1726000E1822820E2F
:107270001724266EFF0E1820276E54EF39F0D89091
:1072800022362336243625361FAE49EF39F04BEF30
:1072900039F04CEF39F02280D8901C361D361E365E
:1072A0001F362606D8A0270624AE59EF39F05BEF2B
:1072B00039F03FEF39F0000E206E1FAE62EF39F06B
:1072C00064EF39F088EF39F0FF0E1C14176EFF0ED3
:1072D0001D14186EFF0E1E14196E7F0E1F141A6EE9
:1072E0001750181019101A10D8B479EF39F07BEF35
:1072F00039F07FEF39F0010E206E88EF39F022A0CF
:1073000084EF39F086EF39F088EF39F07BEF39F010
:107310002050D8B48EEF39F090EF39F0B4EF39F057
:10732000010E2226000E23222422252225A09BEFD7
:1073300039F09DEF39F0B4EF39F022C017F023C0D7
:1073400018F024C019F025C01AF01A341A32193274
:107350001832173217C022F018C023F019C024F0D9
:107360001AC025F0264A272A27BEBFEF39F027503A
:1073700008E12628D8A0BFEF39F0C1EF39F0CBEFF4
:1073800039F0000E226E000E236E800E246E7F0EEA
:10739000256EF9EF39F027BED8EF39F0275006E116
:1073A0002604D8B0D6EF39F0D8EF39F0E4EF39F051
:1073B000000E226E000E236E000E246E000E256E4F
:1073C000000E1B6EF9EF39F026C021F0FF0E2216D9
:1073D000FF0E23167F0E2416000E251621A0F3EFB4
:1073E00039F0F5EF39F0F6EF39F0248ED8902130EE
:1073F000256E1B50251222C00FF023C010F024C0B0
:1074000011F025C012F01200000E826E000E836E85
:107410009268000E936E000E946E80949284C29ACD
:10742000C298C286C294C19AC198C186C184C192D1
:10743000C190C08EC09AC088C096C084C092C090CF
:10744000C280C282FBEF3FF0C4CF43F0446A44C025
:1074500041F0426A41BE426841C043F042C044F03C
:10746000C3504324436E000E4420446E000E136E3E
:10747000000E146EA00E156E400E166E43C001F085
:1074800044C002F0000E02BEFF0E036E046E010E39
:1074900048EC35F001C00FF002C010F003C011F04D
:1074A00004C012F0EFEC37F00FC028F010C029F044
:1074B00011C02AF012C02BF0000E2C6E000E2D6EA3
:1074C000800E2E6E440E2F6E22EC36F028C045F052
:1074D00029C046F02AC047F02BC048F045C001F053
:1074E00046C002F047C003F048C004F0CD0E056E60
:1074F000CC0E066ECC0E076E3D0E086EF3EC34F02B
:10750000D8A085EF3AF087EF3AF08BEF3AF0100E03
:10751000816EFBEF3FF045C001F046C002F047C06E
:1075200003F048C004F0CD0E056ECC0E066E4C0E76
:10753000076E3E0E086EF3EC34F0D8A0A2EF3AF0DE
:10754000A4EF3AF0A8EF3AF0200E816EFBEF3FF087
:1075500045C001F046C002F047C003F048C004F047
:107560009A0E056E990E066E990E076E3E0E086E07
:10757000F3EC34F0D8A0BFEF3AF0C1EF3AF0C5EF2A
:107580003AF0300E816EFBEF3FF045C001F046C08F
:1075900002F047C003F048C004F0CD0E056ECC0EDB
:1075A000066ECC0E076E3E0E086EF3EC34F0D8A0DB
:1075B000DCEF3AF0DEEF3AF0E2EF3AF0400E816EA7
:1075C000FBEF3FF045C001F046C002F047C003F0BA
:1075D00048C004F0000E056E000E066E000E076E29
:1075E0003F0E086EF3EC34F0D8A0F9EF3AF0FBEF61
:1075F0003AF0FFEF3AF0500E816EFBEF3FF045C0DE
:1076000001F046C002F047C003F048C004F09A0EF3
:10761000056E990E066E190E076E3F0E086EF3EC9E
:1076200034F0D8A016EF3BF018EF3BF01CEF3BF026
:10763000600E816EFBEF3FF045C001F046C002F0E6
:1076400047C003F048C004F0330E056E330E066EDB
:10765000330E076E3F0E086EF3EC34F0D8A033EF14
:107660003BF035EF3BF039EF3BF0700E816EFBEFF6
:107670003FF045C001F046C002F047C003F048C0EB
:1076800004F0CD0E056ECC0E066E4C0E076E3F0E4E
:10769000086EF3EC34F0D8A050EF3BF052EF3BF023
:1076A00056EF3BF0800E816EFBEF3FF045C001F0DE
:1076B00046C002F047C003F048C004F0660E056EF5
:1076C000660E066E660E076E3F0E086EF3EC34F023
:1076D000D8A06DEF3BF06FEF3BF073EF3BF0900EF7
:1076E000816EFBEF3FF045C001F046C002F047C09D
:1076F00003F048C004F0000E056E000E066E800E0A
:10770000076E3F0E086EF3EC34F0D8A08AEF3BF022
:107710008CEF3BF090EF3BF0010E816EFBEF3FF002
:1077200045C001F046C002F047C003F048C004F075
:10773000CD0E056ECC0E066E8C0E076E3F0E086EDB
:10774000F3EC34F0D8A0A7EF3BF0A9EF3BF0ADEF9E
:107750003BF0110E816EFBEF3FF045C001F046C0DB
:1077600002F047C003F048C004F09A0E056E990E6F
:10777000066E990E076E3F0E086EF3EC34F0D8A03B
:10778000C4EF3BF0C6EF3BF0CAEF3BF0210E816E39
:10779000FBEF3FF045C001F046C002F047C003F0E8
:1077A00048C004F0660E056E660E066EA60E076EE5
:1077B0003F0E086EF3EC34F0D8A0E1EF3BF0E3EFBE
:1077C0003BF0E7EF3BF0310E816EFBEF3FF045C041
:1077D00001F046C002F047C003F048C004F0330E89
:1077E000056E330E066EB30E076E3F0E086EF3EC99
:1077F00034F0D8A0FEEF3BF000EF3CF004EF3CF09B
:10780000410E816EFBEF3FF045C001F046C002F033
:1078100047C003F048C004F0000E056E000E066E6F
:10782000C00E076E3F0E086EF3EC34F0D8A01BEFCD
:107830003CF01DEF3CF021EF3CF0510E816EFBEF70
:107840003FF045C001F046C002F047C003F048C019
:1078500004F0CD0E056ECC0E066ECC0E076E3F0EFC
:10786000086EF3EC34F0D8A038EF3CF03AEF3CF07F
:107870003EEF3CF0610E816EFBEF3FF045C001F042
:1078800046C002F047C003F048C004F09A0E056EEF
:10789000990E066ED90E076E3F0E086EF3EC34F0AB
:1078A000D8A055EF3CF057EF3CF05BEF3CF0710E89
:1078B000816EFBEF3FF045C001F046C002F047C0CB
:1078C00003F048C004F0660E056E660E066EE60E06
:1078D000076E3F0E086EF3EC34F0D8A072EF3CF068
:1078E00074EF3CF078EF3CF0810E816EFBEF3FF0DF
:1078F00045C001F046C002F047C003F048C004F0A4
:10790000330E056E330E066EF30E076E3F0E086ED5
:10791000F3EC34F0D8A08FEF3CF091EF3CF095EF12
:107920003CF0910E816EFBEF3FF045C001F046C088
:1079300002F047C003F048C004F0000E056E000ED0
:10794000066E000E076E400E086EF3EC34F0D8A001
:10795000ACEF3CF0AEEF3CF0B2EF3CF0020E816ECB
:10796000FBEF3FF045C001F046C002F047C003F016
:1079700048C004F0660E056E660E066E060E076EB3
:10798000400E086EF3EC34F0D8A0C9EF3CF0CBEF1A
:107990003CF0CFEF3CF0120E816EFBEF3FF045C0A4
:1079A00001F046C002F047C003F048C004F0CD0E1D
:1079B000056ECC0E066E0C0E076E400E086EF3ECD4
:1079C00034F0D8A0E6EF3CF0E8EF3CF0ECEF3CF010
:1079D000220E816EFBEF3FF045C001F046C002F081
:1079E00047C003F048C004F0330E056E330E066E38
:1079F000130E076E400E086EF3EC34F0D8A003EFC0
:107A00003DF005EF3DF009EF3DF0320E816EFBEFEA
:107A10003FF045C001F046C002F047C003F048C047
:107A200004F09A0E056E990E066E190E076E400E42
:107A3000086EF3EC34F0D8A020EF3DF022EF3DF0DB
:107A400026EF3DF0420E816EFBEF3FF045C001F0A6
:107A500046C002F047C003F048C004F0000E056EB7
:107A6000000E066E200E076E400E086EF3EC34F02A
:107A7000D8A03DEF3DF03FEF3DF043EF3DF0520E1B
:107A8000816EFBEF3FF045C001F046C002F047C0F9
:107A900003F048C004F0660E056E660E066E260EF4
:107AA000076E400E086EF3EC34F0D8A05AEF3DF0AC
:107AB0005CEF3DF060EF3DF0620E816EFBEF3FF05A
:107AC00045C001F046C002F047C003F048C004F0D2
:107AD000CD0E056ECC0E066E2C0E076E400E086E97
:107AE000F3EC34F0D8A077EF3DF079EF3DF07DEF87
:107AF0003DF0720E816EFBEF3FF045C001F046C0D5
:107B000002F047C003F048C004F0330E056E330E98
:107B1000066E330E076E400E086EF3EC34F0D8A0FC
:107B200094EF3DF096EF3DF09AEF3DF0820E816EBE
:107B3000FBEF3FF045C001F046C002F047C003F044
:107B400048C004F0000E056E000E066E400E076E73
:107B5000400E086EF3EC34F0D8A0B1EF3DF0B3EF77
:107B60003DF0B7EF3DF0030E816EFBEF3FF045C0F7
:107B700001F046C002F047C003F048C004F0660EB2
:107B8000056E660E066E460E076E400E086EF3EC2E
:107B900034F0D8A0CEEF3DF0D0EF3DF0D4EF3DF083
:107BA000130E816EFBEF3FF045C001F046C002F0BE
:107BB00047C003F048C004F0CD0E056ECC0E066E33
:107BC0004C0E076E400E086EF3EC34F0D8A0EBEFCD
:107BD0003DF0EDEF3DF0F1EF3DF0230E816EFBEF58
:107BE0003FF045C001F046C002F047C003F048C076
:107BF00004F0330E056E330E066E530E076E400E04
:107C0000086EF3EC34F0D8A008EF3EF00AEF3EF037
:107C10000EEF3EF0330E816EFBEF3FF045C001F0FA
:107C200046C002F047C003F048C004F09A0E056E4B
:107C3000990E066E590E076E400E086EF3EC34F086
:107C4000D8A025EF3EF027EF3EF02BEF3EF0430E9D
:107C5000816EFBEF3FF045C001F046C002F047C027
:107C600003F048C004F0000E056E000E066E600EB4
:107C7000076E400E086EF3EC34F0D8A042EF3EF0F1
:107C800044EF3EF048EF3EF0530E816EFBEF3FF0C5
:107C900045C001F046C002F047C003F048C004F000
:107CA000660E056E660E066E660E076E400E086E58
:107CB000F3EC34F0D8A05FEF3EF061EF3EF065EFFB
:107CC0003EF0630E816EFBEF3FF045C001F046C011
:107CD00002F047C003F048C004F0CD0E056ECC0E94
:107CE000066E6C0E076E400E086EF3EC34F0D8A0F2
:107CF0007CEF3EF07EEF3EF082EF3EF0730E816E41
:107D0000FBEF3FF045C001F046C002F047C003F072
:107D100048C004F0330E056E330E066E730E076E08
:107D2000400E086EF3EC34F0D8A099EF3EF09BEFD4
:107D30003EF09FEF3EF0830E816EFBEF3FF045C0BB
:107D400001F046C002F047C003F048C004F09A0EAC
:107D5000056E990E066E790E076E400E086EF3ECF6
:107D600034F0D8A0B6EF3EF0B8EF3EF0BCEF3EF0F6
:107D7000930E816EFBEF3FF045C001F046C002F06C
:107D800047C003F048C004F0000E056E000E066EFA
:107D9000800E076E400E086EF3EC34F0D8A0D3EFDF
:107DA0003EF0D5EF3EF0D9EF3EF0040E816EFBEFD2
:107DB0003FF045C001F046C002F047C003F048C0A4
:107DC00004F0330E056E330E066E830E076E400E02
:107DD000086EF3EC34F0D8A0F0EF3EF0F2EF3EF096
:107DE000F6EF3EF0140E816EFBEF3FF045C001F060
:107DF00046C002F047C003F048C004F0660E056EAE
:107E0000660E066E860E076E400E086EF3EC34F0BA
:107E1000D8A00DEF3FF00FEF3FF013EF3FF0240E2F
:107E2000816EFBEF3FF045C001F046C002F047C055
:107E300003F048C004F09A0E056E990E066E890E86
:107E4000076E400E086EF3EC34F0D8A02AEF3FF036
:107E50002CEF3FF030EF3FF0340E816EFBEF3FF040
:107E600045C001F046C002F047C003F048C004F02E
:107E7000CD0E056ECC0E066E8C0E076E400E086E93
:107E8000F3EC34F0D8A047EF3FF049EF3FF04DEF6F
:107E90003FF0440E816EFBEF3FF045C001F046C05D
:107EA00002F047C003F048C004F0000E056E000E5B
:107EB000066E900E076E400E086EF3EC34F0D8A0FC
:107EC00064EF3FF066EF3FF06AEF3FF0540E816ED3
:107ED000FBEF3FF045C001F046C002F047C003F0A1
:107EE00048C004F0330E056E330E066E930E076E17
:107EF000400E086EF3EC34F0D8A081EF3FF083EF32
:107F00003FF087EF3FF0640E816EFBEF3FF045C01E
:107F100001F046C002F047C003F048C004F0660E0E
:107F2000056E660E066E960E076E400E086EF3EC3A
:107F300034F0D8A09EEF3FF0A0EF3FF0A4EF3FF069
:107F4000740E816EFBEF3FF045C001F046C002F0B9
:107F500047C003F048C004F09A0E056E990E066EF5
:107F6000990E076E400E086EF3EC34F0D8A0BBEF0C
:107F70003FF0BDEF3FF0C1EF3FF0840E816EFBEFAD
:107F80003FF045C001F046C002F047C003F048C0D2
:107F900004F0CD0E056ECC0E066E9C0E076E400EE4
:107FA000086EF3EC34F0D8A0D8EF3FF0DAEF3FF0F2
:107FB000DEEF3FF0940E816EFBEF3FF045C001F025
:107FC00046C002F047C003F048C004F0000E056E42
:107FD000000E066EA00E076E400E086EF3EC34F035
:107FE000D8A0F5EF3FF0F7EF3FF0FBEF3FF0050EC5
:107FF000816EFBEF3FF0C28224EF3AF000EF00F019
:020000040020DA
:08000000FFFFFFFFFFFFFFFF00
:020000040030CA
:0E00000000051F1FFF8385FF0FC00FE00F409C
:00000001FF
