:020000040000FA
:0400000024EF34F0C5
:106848000001C5EF3BF0000E0114096E000E0214A2
:106858000A6E800E03140B6E7F0E04140C6E095022
:106868000A100B100C10D8A43CEF34F03EEF34F0B3
:1068780046EF34F0000E016E000E026E000E036E3D
:10688800000E046E000E0514096E000E06140A6E42
:10689800800E07140B6E7F0E08140C6E09500A1038
:1068A8000B100C10D8A45BEF34F05DEF34F065EFFB
:1068B80034F0000E056E000E066E000E076E000E18
:1068C800086E04AE6AEF34F06CEF34F075EF34F014
:1068D800016C021ED8B0022A031ED8B0032A800E0B
:1068E800045608AE7AEF34F07CEF34F085EF34F0DC
:1068F800056C061ED8B0062A071ED8B0072A800ED7
:106908000856000E011A000E021A000E031A800E15
:10691800041A000E051A000E061A000E071A800E39
:10692800081A0550015C06500258075003580850D1
:106938000458D8B0A2EF34F0A4EF34F0A7EF34F045
:10694800D890A8EF34F0D8801200096E0950D8B456
:10695800B0EF34F0B2EF34F0D4EF34F004BEB9EF56
:1069680034F0B7EF34F0D4EF34F001C005F002C0D2
:1069780006F003C007F004C008F0051E061E071E37
:10698800081E052A000E06220722082205C00BF061
:1069980006C00CF007C00DF008C00EF0DCEF34F0B4
:1069A80001C00BF002C00CF003C00DF004C00EF0E3
:1069B8000150021003100410D8A4E5EF34F0E7EFFB
:1069C80034F0F1EF34F0000E016E000E026E000E8E
:1069D800036E000E046E82EF35F0960E0A6EFBEF22
:1069E80034F00A2AD8900E320D320C320B32000ED7
:1069F8000B14056E000E0C14066E000E0D14076EB7
:106A0800FE0E0E14086E0550061007100810D8A4C4
:106A180010EF35F012EF35F0F5EF34F020EF35F0E8
:106A28000A2A010E0B26000E0C220D220E22D890E7
:106A38000E320D320C320B32000E0B14056E000EA6
:106A48000C14066E000E0D14076EFF0E0E14086E61
:106A58000550061007100810D8A435EF35F037EFA9
:106A680035F014EF35F03FEF35F00A06D8900B36C5
:106A78000C360D360E360DBE44EF35F046EF35F0C8
:106A88004EEF35F0020E0A604CEF35F04EEF35F060
:106A980039EF35F00AB053EF35F055EF35F056EFD2
:106AA80035F00D9ED8900A320AC005F0066A076ACA
:106AB800086A05C008F0076A066A056A05500B12DD
:106AC80006500C1207500D1208500E120950D8B477
:106AD80070EF35F072EF35F07AEF35F004BE79EFEC
:106AE80035F077EF35F07AEF35F00E8E0BC001F008
:106AF8000CC002F00DC003F00EC004F012002D50BF
:106B0800800B3A6E2D502D24416E2CAE8EEF35F051
:106B180090EF35F091EF35F041804150D8B497EFC0
:106B280035F099EF35F0AEEF35F04128D8A49FEF56
:106B380035F0A1EF35F0A9EF35F0000E2A6E000E02
:106B48002B6E000E2C6E000E2D6E2C8E000E2D6EF0
:106B5800B6EF35F0000E2A6E000E2B6E000E2C6E6E
:106B6800000E2D6E3150800B3A1A31503124426E8E
:106B780030AEC1EF35F0C3EF35F0C4EF35F04280E9
:106B88004250D8B4CAEF35F0CCEF35F0E1EF35F02C
:106B98004228D8A4D2EF35F0D4EF35F0DCEF35F049
:106BA800000E2E6E000E2F6E000E306E000E316E2F
:106BB800308E000E316EE9EF35F0000E2E6E000EAD
:106BC8002F6E000E306E000E316E2E502F103010CA
:106BD8003110D8A4F2EF35F0F4EF35F00CEF36F0C1
:106BE800000E2A6E000E2B6E000E2C6E000E2D6EFF
:106BF800800E2C127F0E2D123A502D122AC02AF028
:106C08002BC02BF02CC02CF02DC02DF04FEF37F0FF
:106C18004150D8A412EF36F014EF36F01EEF36F0DC
:106C2800000E2A6E000E2B6E000E2C6E000E2D6EBE
:106C38004FEF37F0425041C032F0336A325E000EF7
:106C4800335A7F0E32243B6E000E33203C6E2AC02E
:106C580036F02BC037F02CC038F02DC039F0000EBC
:106C68002A6E000E2B6E000E2C6E000E2D6E000E7E
:106C78003D6E000E3E6E000E3F6E000E406E000E22
:106C8800426E7FEF36F04250D8B44DEF36F04FEFFA
:106C980036F066EF36F0D89036363736383639362D
:106CA800D8902A362B362C362D3640AE5EEF36F08D
:106CB80060EF36F061EF36F02A80D8903D363E36E8
:106CC8003F3640362E50365C2F50375830503858A3
:106CD80031503958D8A073EF36F075EF36F07EEFA3
:106CE80036F0408C2E50365E2F50375A3050385A76
:106CF8003150395A422A190E426485EF36F087EF2F
:106D080036F047EF36F03650371038103910D8B40F
:106D180090EF36F092EF36F0AAEF36F03D80AAEF0A
:106D280036F0D8902A362B362C362D3640AE9FEFCB
:106D380036F0A1EF36F0A2EF36F02A80D8903D3633
:106D48003E363F3640363B06D8A03C062CAEAFEF69
:106D580036F0B1EF36F095EF36F0000E426E40AEE9
:106D6800B8EF36F0BAEF36F0DEEF36F0FF0E3D142E
:106D7800326EFF0E3E14336EFF0E3F14346E7F0EDC
:106D88004014356E3250331034103510D8B4CFEF6C
:106D980036F0D1EF36F0D5EF36F0010E426EDEEF69
:106DA80036F02AA0DAEF36F0DCEF36F0DEEF36F018
:106DB800D1EF36F04250D8B4E4EF36F0E6EF36F0D3
:106DC8000AEF37F0010E2A26000E2B222C222D2244
:106DD8002DA0F1EF36F0F3EF36F00AEF37F02AC0C6
:106DE80032F02BC033F02CC034F02DC035F03534E0
:106DF800353234323332323232C02AF033C02BF0DB
:106E080034C02CF035C02DF03B4A3C2A3CBE15EF6F
:106E180037F03C5008E13B28D8A015EF37F017EFC2
:106E280037F022EF37F0000E3C6E3B68000E2A6EFA
:106E3800000E2B6E000E2C6E000E2D6E3CBE2FEF3A
:106E480037F03C5006E13B04D8B02DEF37F02FEF78
:106E580037F03DEF37F0000E3C6E000E3B6E000E33
:106E68002A6E000E2B6E000E2C6E000E2D6E000E7C
:106E78003A6E3BC041F041A044EF37F046EF37F09F
:106E880049EF37F02C8E4AEF37F02C9ED8904130DE
:106E98002D6E00EF36F012001450800B1D6E14504A
:106EA8001424236E13AE5BEF37F05DEF37F05EEF1F
:106EB80037F023802350D8B464EF37F066EF37F00B
:106EC80079EF37F02328D8A46CEF37F06EEF37F05E
:106ED80076EF37F0000E116E000E126E000E136E74
:106EE800000E146E138E81EF37F0000E116E000E37
:106EF800126E000E136E000E146E1850800B1D1AC1
:106F080018501824226E17AE8CEF37F08EEF37F03A
:106F18008FEF37F022802250D8B495EF37F097EFF3
:106F280037F0AAEF37F02228D8A49DEF37F09FEF6B
:106F380037F0A7EF37F0000E156E000E166E000E34
:106F4800176E000E186E178EB2EF37F0000E156E22
:106F5800000E166E000E176E000E186E2250D8B472
:106F6800B8EF37F0BAEF37F0C2EF37F02350D8A4B4
:106F7800C0EF37F0C2EF37F0CCEF37F0000E116EEC
:106F8800000E126E000E136E000E146E64EF39F0D0
:106F980017501102F3CF28F0F4CF29F028501E6EB5
:106FA8001F6A206A216A2950246E256A266A276A80
:106FB80016501202F3CF28F0F4CF29F028501E26DD
:106FC800000E1F222022212229502426000E2522CD
:106FD8002622272215501302F3CF28F0F4CF29F0E8
:106FE80028501E26000E1F22202221222950242646
:106FF800000E25222622272220C021F01FC020F0C3
:107008001EC01FF01E6A15501202F3CF28F0F4CFED
:1070180029F028501E2629501F22000E2022000E7B
:10702800212216501102F3CF28F0F4CF29F028506E
:107038001E2629501F22000E2022000E212220C0C9
:1070480021F01FC020F01EC01FF01E6A155011024B
:10705800F3CF28F0F4CF29F028501E2629501F22FC
:10706800000E2022000E212217501202F3CF28F022
:10707800F4CF29F02850242629502522000E262254
:10708800000E272216501302F3CF28F0F4CF29F070
:107098002850242629502522000E2622000E2722B9
:1070A80017501302F3CF28F0F4CF29F02850196EA7
:1070B80029501A6E1B6A1C6A1BC01CF01AC01BF0F0
:1070C80019C01AF0196A195024261A5025221B5083
:1070D80026221C5027221EC019F01FC01AF020C0FB
:1070E8001BF021C01CF0190E7FEF38F0D8901C322D
:1070F8001B321A321932E82E7AEF38F0195024264A
:107108001A5025221B5026221C50272220C021F06D
:107118001FC020F01EC01FF01E6A225023C019F0A5
:107128001A6A1926000E1A22820E1924286EFF0EDA
:107138001A20296EB5EF38F0D89024362536263631
:10714800273621AEAAEF38F0ACEF38F0ADEF38F0C3
:107158002480D8901E361F36203621362806D8A01F
:10716800290626AEBAEF38F0BCEF38F0A0EF38F0B9
:10717800000E226E21AEC3EF38F0C5EF38F0E9EF0C
:1071880038F0FF0E1E14196EFF0E1F141A6EFF0E34
:1071980020141B6E7F0E21141C6E19501A101B1020
:1071A8001C10D8B4DAEF38F0DCEF38F0E0EF38F044
:1071B800010E226EE9EF38F024A0E5EF38F0E7EF92
:1071C80038F0E9EF38F0DCEF38F02250D8B4EFEFC0
:1071D80038F0F1EF38F015EF39F0010E2426000EE3
:1071E80025222622272227A0FCEF38F0FEEF38F0D0
:1071F80015EF39F024C019F025C01AF026C01BF08D
:1072080027C01CF01C341C321B321A32193219C028
:1072180024F01AC025F01BC026F01CC027F0284A0D
:10722800292A29BE20EF39F0295008E12828D8A0BA
:1072380020EF39F022EF39F02CEF39F0000E246EF0
:10724800000E256E800E266E7F0E276E5AEF39F0DF
:1072580029BE39EF39F0295006E12804D8B037EFB4
:1072680039F039EF39F045EF39F0000E246E000E91
:10727800256E000E266E000E276E000E1D6E5AEF4C
:1072880039F028C023F0FF0E2416FF0E25167F0EB6
:107298002616000E271623A054EF39F056EF39F0C2
:1072A80057EF39F0268ED8902330276E1D502712BD
:1072B80024C011F025C012F026C013F027C014F026
:1072C80012000450800B0D6E045004240F6E03AEA0
:1072D80070EF39F072EF39F073EF39F00F800F501B
:1072E800D8B479EF39F07BEF39F090EF39F00F2807
:1072F800D8A481EF39F083EF39F08BEF39F0000E25
:10730800016E000E026E000E036E000E046E038EF8
:10731800000E046E98EF39F0000E016E000E026E3A
:10732800000E036E000E046E0850800B0E6E0D509A
:107338000E18D8B4A2EF39F0A4EF39F0A5EF39F060
:107348000D8C085008240E6E07AEADEF39F0AFEF84
:1073580039F0B0EF39F00E800E50D8B4B6EF39F0EE
:10736800B8EF39F0CDEF39F00E28D8A4BEEF39F0D8
:10737800C0EF39F0C8EF39F0000E056E000E066E4A
:10738800000E076E000E086E078E000E086ED5EF11
:1073980039F0000E056E000E066E000E076E000E28
:1073A800086E0F500E5CD8B0DCEF39F0DEEF39F024
:1073B80005EF3AF00DACE3EF39F0E5EF39F0E7EF20
:1073C80039F0800E0D1A0FC010F00EC00FF010C06B
:1073D8000EF001C010F005C001F010C005F002C0A9
:1073E80010F006C002F010C006F003C010F007C08D
:1073F80003F010C007F004C010F008C004F010C07B
:1074080008F0000E106E0F500EC009F00A6A095EEF
:10741800000E0A5A0ABE1AEF3AF00A5009E11A0E8B
:10742800095CD8A01AEF3AF01CEF3AF053EF3AF0A3
:107438000150021003100410D8A425EF3AF028EFE9
:107448003AF0010E29EF3AF0000E106E000E016EB0
:10745800000E026E000E036E000E046E0EC00FF0DA
:107468005CEF3AF010A03BEF3AF03DEF3AF043EF13
:107478003AF0D89010300109106E45EF3AF0D890E4
:10748800103201A04AEF3AF04CEF3AF04DEF3AF0E3
:10749800108E043404320332023201320F2A0E50A5
:1074A8000F5CD8A05AEF3AF05CEF3AF036EF3AF0BA
:1074B8000DBC61EF3AF063EF3AF0A3EF3AF00F50EA
:1074C800D8A469EF3AF06BEF3AF075EF3AF0000E96
:1074D800016E000E026E000E036E000E046EC4EF05
:1074E8003BF005500126065002220750032208509F
:1074F800042204A082EF3AF084EF3AF030EF3BF038
:1075080010A089EF3AF08BEF3AF091EF3AF0D8906B
:1075180010300109106E93EF3AF0D890103201A0A4
:1075280098EF3AF09AEF3AF09BEF3AF0108E043465
:1075380004320332023201320F2A30EF3BF0055099
:10754800015C06500258075003580450800A096E1F
:107558000850800A0958D8B0B4EF3AF0B6EF3AF0BC
:10756800E1EF3AF00150055C096E025006580A6EC8
:10757800035007580B6E045008580C6EFF0E092470
:10758800016EFF0E0A20026EFF0E0B20036EFF0E27
:107598000C20046E800E0D1A106C1050D8A4D7EF72
:1075A8003AF0D9EF3AF0E9EF3AF0010E0126000E71
:1075B800022203220422E9EF3AF00550015E065048
:1075C800025A0750035A0850045A01500210031077
:1075D8000410D8A4F2EF3AF0F4EF3AF029EF3BF0B8
:1075E8001050D8A4FAEF3AF0FCEF3AF029EF3BF04C
:1075F800000E016E000E026E000E036E000E046E89
:10760800C4EF3BF0D890013602360336043610AE8C
:1076180010EF3BF012EF3BF013EF3BF0018010A0AE
:1076280018EF3BF01AEF3BF01EEF3BF0D880103616
:1076380020EF3BF0D89010360F50D8B426EF3BF02F
:1076480028EF3BF029EF3BF00F0603AE2EEF3BF09F
:1076580030EF3BF006EF3BF0000E0E6E10AE37EF4A
:107668003BF039EF3BF051EF3BF010C009F07F0ED3
:107678000916D8B442EF3BF044EF3BF048EF3BF03B
:10768800010E0E6E51EF3BF001A04DEF3BF04FEFB6
:107698003BF051EF3BF044EF3BF00E50D8B457EFBE
:1076A8003BF059EF3BF084EF3BF0010E0126000E52
:1076B80002220322042204A064EF3BF066EF3BF0B1
:1076C80084EF3BF001C009F002C00AF003C00BF0E0
:1076D80004C00CF00C340C320B320A32093209C0E7
:1076E80001F00AC002F00BC003F00CC004F00F2830
:1076F800D8B481EF3BF083EF3BF084EF3BF00F2AE7
:107708000F28D8B48AEF3BF08CEF3BF094EF3BF0B6
:107718000F50D8A492EF3BF094EF3BF0A6EF3BF06C
:10772800000E016E000E026E000E036E000E046E57
:107738000F50D8A4A2EF3BF0A4EF3BF0A6EF3BF02C
:10774800000E0D6E0FA0ABEF3BF0ADEF3BF0B0EFCE
:107758003BF0038EB1EF3BF0039ED8900F30046EE0
:107768000DAEB9EF3BF0BBEF3BF0BCEF3BF0048E46
:1077780001C001F002C002F003C003F004C004F02D
:1077880012000F0E926E000E936E000E816E070EA1
:10779800946E000E946E000E956E000E836E0B0EA6
:1077A800C16E000EC26EC050C70B1009C06EC0502B
:1077B800F80B0409C06EC08EC280C282BAEF3EF0D8
:1077C800000E576E000E586E000E596E000E5A6E5F
:1077D800000E5B6E000E5C6E000E5D6E000E5E6E3F
:1077E800C450446E436AC350456E466A43504526AA
:1077F8004450462245C001F046C002F0000E02BEC9
:10780800FF0E036E046E010EA9EC34F001C047F0C0
:1078180002C048F003C049F004C04AF0000E156EDB
:10782800000E166E480E176E420E186E000E056E8C
:10783800000E066E800E076E3F0E086E47C001F000
:1078480048C002F049C003F04AC004F065EC39F0C2
:1078580001C011F002C012F003C013F004C014F00C
:1078680050EC37F011C02AF012C02BF013C02CF0E6
:1078780014C02DF0000E2E6E000E2F6E800E306E8E
:10788800440E316E83EC35F02AC05BF02BC05CF0FF
:107898002CC05DF02DC05EF05BC001F05CC002F052
:1078A8005DC003F05EC004F0000E056E000E066EAB
:1078B800480E076E420E086E27EC34F0D8A067EF2A
:1078C8003CF069EF3CF089EF3CF08380839283843D
:1078D80083965BC001F05CC002F05DC003F05EC03F
:1078E80004F0000E056E000E066E480E076EC20EFE
:1078F800086E65EC39F001C057F002C058F003C0BB
:1079080059F004C05AF079EF3DF05BC001F05CC05B
:1079180002F05DC003F05EC004F0000E056E000EBC
:10792800066E200E076E420E086E27EC34F0D8A0C3
:10793800A0EF3CF0A2EF3CF0C2EF3CF083908392C2
:10794800838483965BC001F05CC002F05DC003F0E5
:107958005EC004F0000E056E000E066E200E076E67
:10796800C20E086E65EC39F001C057F002C058F03D
:1079780003C059F004C05AF079EF3DF05BC001F044
:107988005CC002F05DC003F05EC004F0000E056E3E
:10799800000E066EF00E076E410E086E27EC34F0EE
:1079A800D8A0D9EF3CF0DBEF3CF0FBEF3CF0838054
:1079B8008382839483965BC001F05CC002F05DC053
:1079C80003F05EC004F0000E056E000E066EF00EA9
:1079D800076EC10E086E65EC39F001C057F002C0A1
:1079E80058F003C059F004C05AF079EF3DF05BC07D
:1079F80001F05CC002F05DC003F05EC004F0000E50
:107A0800056E000E066EA00E076E410E086E27EC7E
:107A180034F0D8A012EF3DF014EF3DF034EF3DF014
:107A280083908382839483965BC001F05CC002F0EC
:107A38005DC003F05EC004F0000E056E000E066E19
:107A4800A00E076EC10E086E65EC39F001C057F044
:107A580002C058F003C059F004C05AF079EF3DF065
:107A68005BC001F05CC002F05DC003F05EC004F0D2
:107A7800000E056E000E066E200E076E410E086E93
:107A880027EC34F0D8A04BEF3DF04DEF3DF06DEF13
:107A98003DF083808392839483965BC001F05CC041
:107AA80002F05DC003F05EC004F0000E056E000E2B
:107AB800066E200E076EC10E086E65EC39F001C027
:107AC80057F002C058F003C059F004C05AF079EFDB
:107AD8003DF083908392839483965BC057F05CC09B
:107AE80058F05DC059F05EC05AF057C001F058C058
:107AF80002F059C003F05AC004F0000E056E000EE3
:107B0800066E100E076E410E086E27EC34F0D8A0F2
:107B180090EF3DF092EF3DF098EF3DF08388839A27
:107B2800839C838E9DEF3EF057C001F058C002F051
:107B380059C003F05AC004F0000E056E000E066E20
:107B4800000E076E410E086E27EC34F0D8A0AFEF98
:107B58003DF0B1EF3DF0B7EF3DF08398839A839CF9
:107B6800838E9DEF3EF057C001F058C002F059C017
:107B780003F05AC004F0000E056E000E066EE00E0B
:107B8800076E400E086E27EC34F0D8A0CEEF3DF01B
:107B9800D0EF3DF0D6EF3DF08388838A838C839EB7
:107BA8009DEF3EF057C001F058C002F059C003F0F5
:107BB8005AC004F0000E056E000E066EC00E076E69
:107BC800400E086E27EC34F0D8A0EDEF3DF0EFEF53
:107BD8003DF0F5EF3DF08398838A838C839E9DEF7B
:107BE8003EF057C001F058C002F059C003F05AC027
:107BF80004F0000E056E000E066EA00E076E400E15
:107C0800086E27EC34F0D8A00CEF3EF00EEF3EF0F3
:107C180014EF3EF08388839A838C839E9DEF3EF019
:107C280057C001F058C002F059C003F05AC004F020
:107C3800000E056E000E066E800E076E400E086E72
:107C480027EC34F0D8A02BEF3EF02DEF3EF033EFC9
:107C58003EF08398839A838C839E9DEF3EF057C0B5
:107C680001F058C002F059C003F05AC004F0000EE9
:107C7800056E000E066E400E076E400E086E27EC6D
:107C880034F0D8A04AEF3EF04CEF3EF052EF3EF011
:107C98008388838A839C839E9DEF3EF057C001F0C2
:107CA80058C002F059C003F05AC004F0000E056E27
:107CB800000E066E000E076E400E086E27EC34F0BC
:107CC800D8A069EF3EF06BEF3EF071EF3EF083987D
:107CD800838A839C839E9DEF3EF057C001F058C075
:107CE80002F059C003F05AC004F0000E056E000EF1
:107CF800066E800E076E3F0E086E27EC34F0D8A093
:107D080088EF3EF08AEF3EF090EF3EF08388839A4A
:107D1800839C839E9DEF3EF05ABE95EF3EF097EF11
:107D28003EF09DEF3EF08398839A839C839E9DEF5F
:107D38003EF0000E016E000E026EC80E036E410E7C
:107D4800046E5BC005F05CC006F05DC007F05EC065
:107D580008F027EC34F0D8B0B4EF3EF0B6EF3EF0C0
:107D6800B9EF3EF08180BAEF3EF08190C2B2BFEF2A
:107D78003EF0C1EF3EF0E4EF3BF0C292C290C25039
:107D8800C30B0409C26EC188C280C282F5EF3FF0FE
:107D9800000E4F6E000E506E000E516E000E526EA9
:107DA800000E536E000E546E000E556E000E566E89
:107DB800C450446E436AC350456E466A43504526D4
:107DC8004450462245C001F046C002F0000E02BEF3
:107DD800FF0E036E046E010EA9EC34F001C04BF0E7
:107DE80002C04CF003C04DF004C04EF0000E156EFA
:107DF800000E166E160E176E430E186E000E056EE8
:107E0800000E066E800E076E3F0E086E4BC001F026
:107E18004CC002F04DC003F04EC004F065EC39F0E0
:107E280001C011F002C012F003C013F004C014F036
:107E380050EC37F011C02AF012C02BF013C02CF010
:107E480014C02DF0000E2E6E000E2F6E800E306EB8
:107E5800440E316E83EC35F02AC04FF02BC050F041
:107E68002CC051F02DC052F0000E2E6E000E2F6E59
:107E7800A00E306E400E316E000E156E000E166E9E
:107E8800100E176E410E186E4FC011F050C012F050
:107E980051C013F052C014F050EC37F011C02AF062
:107EA80012C02BF013C02CF014C02DF083EC35F069
:107EB8002AC001F02BC002F02CC003F02DC004F042
:107EC800000E056E000E066E000E076E420E086E5E
:107ED80065EC39F001C053F002C054F003C055F00E
:107EE80004C056F0000E016E000E026E300E036ED6
:107EF800430E046E53C005F054C006F055C007F099
:107F080056C008F027EC34F0D8B08DEF3FF08FEF73
:107F18003FF0C3EF3FF0818282A095EF3FF097EFEB
:107F28003FF0A8EF3FF082A29CEF3FF09EEF3FF0BA
:107F3800A8EF3FF082B4A3EF3FF0A5EF3FF0A8EF22
:107F48003FF08184F5EF3FF082B0ADEF3FF0AFEF47
:107F58003FF0C0EF3FF082B2B4EF3FF0B6EF3FF032
:107F6800C0EF3FF082A4BBEF3FF0BDEF3FF0C0EFA2
:107F78003FF08184F5EF3FF08194F5EF3FF082A068
:107F8800C8EF3FF0CAEF3FF0DBEF3FF082B2CFEF30
:107F98003FF0D1EF3FF0DBEF3FF082A4D6EF3FF0A8
:107FA800D8EF3FF0DBEF3FF08184F4EF3FF082B091
:107FB800E0EF3FF0E2EF3FF0F3EF3FF082A2E7EFB0
:107FC8003FF0E9EF3FF0F3EF3FF082B4EEEF3FF020
:107FD800F0EF3FF0F3EF3FF08184F4EF3FF081944E
:107FE8008192C2B2FAEF3FF0FCEF3FF0CCEF3EF0E7
:087FF800D3EF3BF000EF00F0B5
:020000040020DA
:08000000FFFFFFFFFFFFFFFF00
:020000040030CA
:0E00000000051F1FFF8385FF0FC00FE00F409C
:00000001FF
