:020000040000FA
:0400000007EF00F016
:10000800158216ED03F089EF03F00A0E111812108D
:10001800D8A411EF00F013EF00F017EF00F0000E76
:10002800126E000E116E11C009F012C00AF0020E15
:100038000F181010D8A423EF00F025EF00F02BEFD5
:1000480000F00D4A0E2A000E106E000E0F6E3C0EC8
:100058000D180E10D8A433EF00F035EF00F03BEF89
:1000680000F00B4A0C2A000E0E6E000E0D6E0EBE2E
:1000780047EF00F00E5009E1320E0D5CD8A047EFB3
:1000880000F049EF00F055EF00F0000E066E050E87
:10009800056ECE0E0D24076EFF0E0E20086ED5EFEE
:1000A80000F00EBE61EF00F00E5009E1280E0D5C65
:1000B800D8A061EF00F063EF00F06FEF00F0000EE2
:1000C800066E040E056ED80E0D24076EFF0E0E2068
:1000D800086ED5EF00F00EBE7BEF00F00E5009E180
:1000E8001E0E0D5CD8A07BEF00F07DEF00F089EFCD
:1000F80000F0000E066E030E056EE20E0D24076E6C
:10010800FF0E0E20086ED5EF00F00EBE95EF00F042
:100118000E5009E1140E0D5CD8A095EF00F097EF92
:1001280000F0A3EF00F0000E066E020E056EEC0E56
:100138000D24076EFF0E0E20086ED5EF00F00EBEE0
:10014800AFEF00F00E5009E10A0E0D5CD8A0AFEF3A
:1001580000F0B1EF00F0BDEF00F0000E066E010EEA
:10016800056EF60E0D24076EFF0E0E20086ED5EFF5
:1001780000F00EBECBEF00F00E5007E10A0E0D5C4A
:10018800D8B0C9EF00F0CBEF00F0D5EF00F0000ECB
:10019800066E000E056E0DC007F00EC008F0D5EF14
:1001A80000F00CBEE1EF00F00C5009E15A0E0B5CB8
:1001B800D8A0E1EF00F0E3EF00F0EFEF00F0000E61
:1001C800026E090E016EA60E0B24036EFF0E0C20A4
:1001D800046ED7EF01F00CBEFBEF00F00C5009E104
:1001E800500E0B5CD8A0FBEF00F0FDEF00F009EF1C
:1001F80001F0000E026E080E016EB00E0B24036EA5
:10020800FF0E0C20046ED7EF01F00CBE15EF01F0C5
:100218000C5009E1460E0B5CD8A015EF01F017EF62
:1002280001F023EF01F0000E026E070E016EBA0E08
:100238000B24036EFF0E0C20046ED7EF01F00CBEEA
:100248002FEF01F00C5009E13C0E0B5CD8A02FEF0A
:1002580001F031EF01F03DEF01F0000E026E060EE5
:10026800016EC40E0B24036EFF0E0C20046ED7EF34
:1002780001F00CBE49EF01F00C5009E1320E0B5CA5
:10028800D8A049EF01F04BEF01F057EF01F0000E55
:10029800026E050E016ECE0E0B24036EFF0E0C20AF
:1002A800046ED7EF01F00CBE63EF01F00C5009E1CA
:1002B800280E0B5CD8A063EF01F065EF01F071EF39
:1002C80001F0000E026E040E016ED80E0B24036EB0
:1002D800FF0E0C20046ED7EF01F00CBE7DEF01F08D
:1002E8000C5009E11E0E0B5CD8A07DEF01F07FEFEA
:1002F80001F08BEF01F0000E026E030E016EE20EAC
:100308000B24036EFF0E0C20046ED7EF01F00CBE19
:1003180097EF01F00C5009E1140E0B5CD8A097EF91
:1003280001F099EF01F0A5EF01F0000E026E020E48
:10033800016EEC0E0B24036EFF0E0C20046ED7EF3B
:1003480001F00CBEB1EF01F00C5009E10A0E0B5C94
:10035800D8A0B1EF01F0B3EF01F0BFEF01F0000E4C
:10036800026E010E016EF60E0B24036EFF0E0C20BA
:10037800046ED7EF01F00CBECDEF01F00C5007E191
:100388000A0E0B5CD8B0CBEF01F0CDEF01F0D7EF40
:1003980001F0000E026E000E016E0BC003F00CC0DF
:1003A80004F0D7EF01F0120013501410D8A4DFEFB7
:1003B80001F0E1EF01F0E7EF01F08390839283947D
:1003C800839676EF02F013041410D8A4EEEF01F030
:1003D800F0EF01F0F6EF01F0838083928394839627
:1003E80076EF02F0020E13181410D8A4FEEF01F0F5
:1003F80000EF02F006EF02F08390838283948396E5
:1004080076EF02F0030E13181410D8A40EEF02F0C2
:1004180010EF02F016EF02F08380838283948396B4
:1004280076EF02F0040E13181410D8A41EEF02F091
:1004380020EF02F026EF02F0839083928384839664
:1004480076EF02F0050E13181410D8A42EEF02F060
:1004580030EF02F036EF02F0838083928384839634
:1004680076EF02F0060E13181410D8A43EEF02F02F
:1004780040EF02F046EF02F08390838283848396F4
:1004880076EF02F0070E13181410D8A44EEF02F0FE
:1004980050EF02F056EF02F08380838283848396C4
:1004A80076EF02F0080E13181410D8A45EEF02F0CD
:1004B80060EF02F066EF02F0839083928394838664
:1004C80076EF02F0090E13181410D8A46EEF02F09C
:1004D80070EF02F076EF02F0838083928394838634
:1004E80076EF02F0120013501410D8A47EEF02F039
:1004F80080EF02F086EF02F08398839A839C839EB4
:1005080015EF03F013041410D8A48DEF02F08FEF49
:1005180002F095EF02F08388839A839C839E15EFFF
:1005280003F0020E13181410D8A49DEF02F09FEFE9
:1005380002F0A5EF02F08398838A839C839E15EFCF
:1005480003F0030E13181410D8A4ADEF02F0AFEFA8
:1005580002F0B5EF02F08388838A839C839E15EFAF
:1005680003F0040E13181410D8A4BDEF02F0BFEF67
:1005780002F0C5EF02F08398839A838C839E15EF6F
:1005880003F0050E13181410D8A4CDEF02F0CFEF26
:1005980002F0D5EF02F08388839A838C839E15EF4F
:1005A80003F0060E13181410D8A4DDEF02F0DFEFE5
:1005B80002F0E5EF02F08398838A838C839E15EF1F
:1005C80003F0070E13181410D8A4EDEF02F0EFEFA4
:1005D80002F0F5EF02F08388838A838C839E15EFFF
:1005E80003F0080E13181410D8A4FDEF02F0FFEF63
:1005F80002F005EF03F08398839A839C838E15EFAE
:1006080003F0090E13181410D8A40DEF03F00FEF20
:1006180003F015EF03F08388839A839C838E15EF8C
:1006280003F012000600F2A41CEF03F01EEF03F023
:1006380025EF03F0114A122A3C0ED76EB00ED66E83
:10064800F2949EA02AEF03F02CEF03F033EF03F0AF
:100658000F4A102A0B0ECF6EDC0ECE6E9E901592AE
:1006680011005EEC03F07DEC03F03C0ED76EB00E8B
:10067800D66E71EC03F00B0ECF6EDC0ECE6E09EC6D
:1006880000F04BEC03F043EF03F007EF00F009C074
:1006980080FF07C081FF05C082FF03C013F004C0BC
:1006A80014F0D8EC01F001C013F002C014F077EC9C
:1006B80002F012000F0EC16E000E926E000E806ED8
:1006C800000E936E000E816E000E946E000E826E08
:1006D800000E956E000E836E1200F29EF29CCD9273
:1006E800300ECD12CD8ECD809D809E90F28EF28CF4
:1006F8001200F29ED59AD596F80ED516D59CD58EB1
:10070800F294F28AF28EF28C120000EE01F0120ED0
:10071800EE6AE806FDE115901592000135EF03F049
:020000040020DA
:08000000FFFFFFFFFFFFFFFF00
:020000040030CA
:0E00000000051F1FFF8385FF0FC00FE00F409C
:00000001FF
