:020000040000FA
:0400000007EF00F016
:1000080005824BED00F068EF00F0000E046E000E64
:10001800036E0B0ED76EDC0ED66E17EF00F08188DC
:10002800819A818C819E04BE23EF00F0045009E17F
:100038000F0E035CD8A023EF00F025EF00F013EFBC
:1000480000F0000E046E020E036E000E026E000E2B
:10005800016E12009BEC00F0A2EC00F08DEC00F0B9
:100068000B0ED76EDC0ED66E01500210D8A43FEFEF
:1000780000F041EF00F045EF00F07BEC00F038EFC6
:1000880000F009EC00F038EF00F007EF00F0060090
:10009800F2A251EF00F053EF00F058EF00F0000E1D
:1000A800026E010E016EF292F2A45DEF00F05FEFB6
:1000B80000F066EF00F0034A042A0B0ED76EDC0E40
:1000C800D66EF29405921100500EF66E010EF76E80
:1000D800000EF86E0900F5CF03F00900F5CF04F023
:1000E800026A016A0590059200012EEF00F003B044
:1000F80080EF00F082EF00F088EF00F08188819AAD
:10010800818C819E8CEF00F08198818A819C818E00
:100118001200F29ED59AD596D550F80B0309D56EE4
:10012800D59CD58EF294F28AF28EF28C12000F0EC4
:10013800C16E010E936EA00E816E1200F29EF288BF
:0A014800F18CF292F28E1200020018
:020000040020DA
:08000000FFFFFFFFFFFFFFFF00
:020000040030CA
:0E00000000051F1FFF8385FF0FC00FE00F409C
:00000001FF
